{
  "_format": "hh-sol-artifact-1",
  "contractName": "OrderTracking",
  "sourceName": "contracts/OrderTracking.sol",
  "abi": [
    {
      "inputs": [
        {
          "internalType": "uint256",
          "name": "_platformFeeBps",
          "type": "uint256"
        },
        {
          "internalType": "uint256",
          "name": "_minOrderValue",
          "type": "uint256"
        }
      ],
      "stateMutability": "nonpayable",
      "type": "constructor"
    },
    {
      "anonymous": false,
      "inputs": [
        {
          "indexed": false,
          "internalType": "uint256",
          "name": "oldValue",
          "type": "uint256"
        },
        {
          "indexed": false,
          "internalType": "uint256",
          "name": "newValue",
          "type": "uint256"
        }
      ],
      "name": "MinOrderValueUpdated",
      "type": "event"
    },
    {
      "anonymous": false,
      "inputs": [
        {
          "indexed": true,
          "internalType": "uint256",
          "name": "orderId",
          "type": "uint256"
        },
        {
          "indexed": false,
          "internalType": "address",
          "name": "cancelledBy",
          "type": "address"
        },
        {
          "indexed": false,
          "internalType": "string",
          "name": "reason",
          "type": "string"
        }
      ],
      "name": "OrderCancelled",
      "type": "event"
    },
    {
      "anonymous": false,
      "inputs": [
        {
          "indexed": true,
          "internalType": "uint256",
          "name": "orderId",
          "type": "uint256"
        },
        {
          "indexed": true,
          "internalType": "address",
          "name": "buyer",
          "type": "address"
        },
        {
          "indexed": true,
          "internalType": "address",
          "name": "seller",
          "type": "address"
        },
        {
          "indexed": false,
          "internalType": "string",
          "name": "orderNumber",
          "type": "string"
        },
        {
          "indexed": false,
          "internalType": "uint256",
          "name": "price",
          "type": "uint256"
        },
        {
          "indexed": false,
          "internalType": "address",
          "name": "currency",
          "type": "address"
        }
      ],
      "name": "OrderCreated",
      "type": "event"
    },
    {
      "anonymous": false,
      "inputs": [
        {
          "indexed": true,
          "internalType": "uint256",
          "name": "orderId",
          "type": "uint256"
        },
        {
          "indexed": true,
          "internalType": "address",
          "name": "disputer",
          "type": "address"
        },
        {
          "indexed": false,
          "internalType": "string",
          "name": "reason",
          "type": "string"
        }
      ],
      "name": "OrderDisputed",
      "type": "event"
    },
    {
      "anonymous": false,
      "inputs": [
        {
          "indexed": true,
          "internalType": "uint256",
          "name": "orderId",
          "type": "uint256"
        },
        {
          "indexed": false,
          "internalType": "enum OrderTracking.OrderStatus",
          "name": "oldStatus",
          "type": "uint8"
        },
        {
          "indexed": false,
          "internalType": "enum OrderTracking.OrderStatus",
          "name": "newStatus",
          "type": "uint8"
        },
        {
          "indexed": false,
          "internalType": "address",
          "name": "updatedBy",
          "type": "address"
        }
      ],
      "name": "OrderStatusUpdated",
      "type": "event"
    },
    {
      "anonymous": false,
      "inputs": [
        {
          "indexed": false,
          "internalType": "uint256",
          "name": "oldFee",
          "type": "uint256"
        },
        {
          "indexed": false,
          "internalType": "uint256",
          "name": "newFee",
          "type": "uint256"
        }
      ],
      "name": "PlatformFeeUpdated",
      "type": "event"
    },
    {
      "anonymous": false,
      "inputs": [
        {
          "indexed": true,
          "internalType": "uint256",
          "name": "orderId",
          "type": "uint256"
        },
        {
          "indexed": false,
          "internalType": "string",
          "name": "trackingNumber",
          "type": "string"
        }
      ],
      "name": "TrackingNumberAdded",
      "type": "event"
    },
    {
      "inputs": [
        {
          "internalType": "uint256",
          "name": "_orderId",
          "type": "uint256"
        },
        {
          "internalType": "string",
          "name": "_trackingNumber",
          "type": "string"
        }
      ],
      "name": "addTrackingNumber",
      "outputs": [],
      "stateMutability": "nonpayable",
      "type": "function"
    },
    {
      "inputs": [
        {
          "internalType": "address",
          "name": "",
          "type": "address"
        },
        {
          "internalType": "uint256",
          "name": "",
          "type": "uint256"
        }
      ],
      "name": "buyerOrders",
      "outputs": [
        {
          "internalType": "uint256",
          "name": "",
          "type": "uint256"
        }
      ],
      "stateMutability": "view",
      "type": "function"
    },
    {
      "inputs": [
        {
          "internalType": "uint256",
          "name": "_orderId",
          "type": "uint256"
        },
        {
          "internalType": "string",
          "name": "_reason",
          "type": "string"
        }
      ],
      "name": "cancelOrder",
      "outputs": [],
      "stateMutability": "nonpayable",
      "type": "function"
    },
    {
      "inputs": [
        {
          "internalType": "uint256",
          "name": "_orderId",
          "type": "uint256"
        }
      ],
      "name": "confirmOrder",
      "outputs": [],
      "stateMutability": "nonpayable",
      "type": "function"
    },
    {
      "inputs": [
        {
          "internalType": "address",
          "name": "_seller",
          "type": "address"
        },
        {
          "internalType": "string",
          "name": "_productName",
          "type": "string"
        },
        {
          "internalType": "string",
          "name": "_productDescription",
          "type": "string"
        },
        {
          "internalType": "uint256",
          "name": "_quantity",
          "type": "uint256"
        },
        {
          "internalType": "address",
          "name": "_currency",
          "type": "address"
        },
        {
          "internalType": "uint256",
          "name": "_estimatedDelivery",
          "type": "uint256"
        },
        {
          "internalType": "string",
          "name": "_network",
          "type": "string"
        },
        {
          "internalType": "string",
          "name": "_metadataHash",
          "type": "string"
        }
      ],
      "name": "createOrder",
      "outputs": [
        {
          "internalType": "uint256",
          "name": "",
          "type": "uint256"
        }
      ],
      "stateMutability": "payable",
      "type": "function"
    },
    {
      "inputs": [
        {
          "internalType": "uint256",
          "name": "_orderId",
          "type": "uint256"
        },
        {
          "internalType": "string",
          "name": "_reason",
          "type": "string"
        }
      ],
      "name": "disputeOrder",
      "outputs": [],
      "stateMutability": "nonpayable",
      "type": "function"
    },
    {
      "inputs": [
        {
          "internalType": "address",
          "name": "_buyer",
          "type": "address"
        }
      ],
      "name": "getBuyerOrders",
      "outputs": [
        {
          "internalType": "uint256[]",
          "name": "",
          "type": "uint256[]"
        }
      ],
      "stateMutability": "view",
      "type": "function"
    },
    {
      "inputs": [
        {
          "internalType": "uint256",
          "name": "_orderId",
          "type": "uint256"
        }
      ],
      "name": "getOrder",
      "outputs": [
        {
          "components": [
            {
              "internalType": "uint256",
              "name": "id",
              "type": "uint256"
            },
            {
              "internalType": "string",
              "name": "orderNumber",
              "type": "string"
            },
            {
              "internalType": "address",
              "name": "buyer",
              "type": "address"
            },
            {
              "internalType": "address",
              "name": "seller",
              "type": "address"
            },
            {
              "internalType": "string",
              "name": "productName",
              "type": "string"
            },
            {
              "internalType": "string",
              "name": "productDescription",
              "type": "string"
            },
            {
              "internalType": "uint256",
              "name": "quantity",
              "type": "uint256"
            },
            {
              "internalType": "uint256",
              "name": "price",
              "type": "uint256"
            },
            {
              "internalType": "address",
              "name": "currency",
              "type": "address"
            },
            {
              "internalType": "enum OrderTracking.OrderStatus",
              "name": "status",
              "type": "uint8"
            },
            {
              "internalType": "uint256",
              "name": "createdAt",
              "type": "uint256"
            },
            {
              "internalType": "uint256",
              "name": "updatedAt",
              "type": "uint256"
            },
            {
              "internalType": "uint256",
              "name": "estimatedDelivery",
              "type": "uint256"
            },
            {
              "internalType": "string",
              "name": "trackingNumber",
              "type": "string"
            },
            {
              "internalType": "bytes32",
              "name": "transactionHash",
              "type": "bytes32"
            },
            {
              "internalType": "string",
              "name": "network",
              "type": "string"
            },
            {
              "internalType": "string",
              "name": "metadataHash",
              "type": "string"
            }
          ],
          "internalType": "struct OrderTracking.Order",
          "name": "",
          "type": "tuple"
        }
      ],
      "stateMutability": "view",
      "type": "function"
    },
    {
      "inputs": [
        {
          "internalType": "uint256[]",
          "name": "_orderIds",
          "type": "uint256[]"
        }
      ],
      "name": "getOrders",
      "outputs": [
        {
          "components": [
            {
              "internalType": "uint256",
              "name": "id",
              "type": "uint256"
            },
            {
              "internalType": "string",
              "name": "orderNumber",
              "type": "string"
            },
            {
              "internalType": "address",
              "name": "buyer",
              "type": "address"
            },
            {
              "internalType": "address",
              "name": "seller",
              "type": "address"
            },
            {
              "internalType": "string",
              "name": "productName",
              "type": "string"
            },
            {
              "internalType": "string",
              "name": "productDescription",
              "type": "string"
            },
            {
              "internalType": "uint256",
              "name": "quantity",
              "type": "uint256"
            },
            {
              "internalType": "uint256",
              "name": "price",
              "type": "uint256"
            },
            {
              "internalType": "address",
              "name": "currency",
              "type": "address"
            },
            {
              "internalType": "enum OrderTracking.OrderStatus",
              "name": "status",
              "type": "uint8"
            },
            {
              "internalType": "uint256",
              "name": "createdAt",
              "type": "uint256"
            },
            {
              "internalType": "uint256",
              "name": "updatedAt",
              "type": "uint256"
            },
            {
              "internalType": "uint256",
              "name": "estimatedDelivery",
              "type": "uint256"
            },
            {
              "internalType": "string",
              "name": "trackingNumber",
              "type": "string"
            },
            {
              "internalType": "bytes32",
              "name": "transactionHash",
              "type": "bytes32"
            },
            {
              "internalType": "string",
              "name": "network",
              "type": "string"
            },
            {
              "internalType": "string",
              "name": "metadataHash",
              "type": "string"
            }
          ],
          "internalType": "struct OrderTracking.Order[]",
          "name": "",
          "type": "tuple[]"
        }
      ],
      "stateMutability": "view",
      "type": "function"
    },
    {
      "inputs": [
        {
          "internalType": "address",
          "name": "_seller",
          "type": "address"
        }
      ],
      "name": "getSellerOrders",
      "outputs": [
        {
          "internalType": "uint256[]",
          "name": "",
          "type": "uint256[]"
        }
      ],
      "stateMutability": "view",
      "type": "function"
    },
    {
      "inputs": [
        {
          "internalType": "uint256",
          "name": "_orderId",
          "type": "uint256"
        }
      ],
      "name": "markAsProcessing",
      "outputs": [],
      "stateMutability": "nonpayable",
      "type": "function"
    },
    {
      "inputs": [
        {
          "internalType": "uint256",
          "name": "_orderId",
          "type": "uint256"
        }
      ],
      "name": "markAsShipped",
      "outputs": [],
      "stateMutability": "nonpayable",
      "type": "function"
    },
    {
      "inputs": [],
      "name": "minOrderValue",
      "outputs": [
        {
          "internalType": "uint256",
          "name": "",
          "type": "uint256"
        }
      ],
      "stateMutability": "view",
      "type": "function"
    },
    {
      "inputs": [
        {
          "internalType": "uint256",
          "name": "",
          "type": "uint256"
        }
      ],
      "name": "orders",
      "outputs": [
        {
          "internalType": "uint256",
          "name": "id",
          "type": "uint256"
        },
        {
          "internalType": "string",
          "name": "orderNumber",
          "type": "string"
        },
        {
          "internalType": "address",
          "name": "buyer",
          "type": "address"
        },
        {
          "internalType": "address",
          "name": "seller",
          "type": "address"
        },
        {
          "internalType": "string",
          "name": "productName",
          "type": "string"
        },
        {
          "internalType": "string",
          "name": "productDescription",
          "type": "string"
        },
        {
          "internalType": "uint256",
          "name": "quantity",
          "type": "uint256"
        },
        {
          "internalType": "uint256",
          "name": "price",
          "type": "uint256"
        },
        {
          "internalType": "address",
          "name": "currency",
          "type": "address"
        },
        {
          "internalType": "enum OrderTracking.OrderStatus",
          "name": "status",
          "type": "uint8"
        },
        {
          "internalType": "uint256",
          "name": "createdAt",
          "type": "uint256"
        },
        {
          "internalType": "uint256",
          "name": "updatedAt",
          "type": "uint256"
        },
        {
          "internalType": "uint256",
          "name": "estimatedDelivery",
          "type": "uint256"
        },
        {
          "internalType": "string",
          "name": "trackingNumber",
          "type": "string"
        },
        {
          "internalType": "bytes32",
          "name": "transactionHash",
          "type": "bytes32"
        },
        {
          "internalType": "string",
          "name": "network",
          "type": "string"
        },
        {
          "internalType": "string",
          "name": "metadataHash",
          "type": "string"
        }
      ],
      "stateMutability": "view",
      "type": "function"
    },
    {
      "inputs": [],
      "name": "owner",
      "outputs": [
        {
          "internalType": "address",
          "name": "",
          "type": "address"
        }
      ],
      "stateMutability": "view",
      "type": "function"
    },
    {
      "inputs": [],
      "name": "platformFeeBps",
      "outputs": [
        {
          "internalType": "uint256",
          "name": "",
          "type": "uint256"
        }
      ],
      "stateMutability": "view",
      "type": "function"
    },
    {
      "inputs": [
        {
          "internalType": "address",
          "name": "",
          "type": "address"
        },
        {
          "internalType": "uint256",
          "name": "",
          "type": "uint256"
        }
      ],
      "name": "sellerOrders",
      "outputs": [
        {
          "internalType": "uint256",
          "name": "",
          "type": "uint256"
        }
      ],
      "stateMutability": "view",
      "type": "function"
    },
    {
      "inputs": [
        {
          "internalType": "uint256",
          "name": "_newValue",
          "type": "uint256"
        }
      ],
      "name": "setMinOrderValue",
      "outputs": [],
      "stateMutability": "nonpayable",
      "type": "function"
    },
    {
      "inputs": [
        {
          "internalType": "uint256",
          "name": "_newFee",
          "type": "uint256"
        }
      ],
      "name": "setPlatformFee",
      "outputs": [],
      "stateMutability": "nonpayable",
      "type": "function"
    },
    {
      "inputs": [],
      "name": "totalOrders",
      "outputs": [
        {
          "internalType": "uint256",
          "name": "",
          "type": "uint256"
        }
      ],
      "stateMutability": "view",
      "type": "function"
    },
    {
      "inputs": [
        {
          "internalType": "address",
          "name": "_newOwner",
          "type": "address"
        }
      ],
      "name": "transferOwnership",
      "outputs": [],
      "stateMutability": "nonpayable",
      "type": "function"
    },
    {
      "inputs": [
        {
          "internalType": "uint256",
          "name": "_orderId",
          "type": "uint256"
        },
        {
          "internalType": "enum OrderTracking.OrderStatus",
          "name": "_newStatus",
          "type": "uint8"
        }
      ],
      "name": "updateOrderStatus",
      "outputs": [],
      "stateMutability": "nonpayable",
      "type": "function"
    },
    {
      "stateMutability": "payable",
      "type": "receive"
    }
  ],
  "bytecode": "0x60803461006b57601f612fec38819003918201601f19168301916001600160401b0383118484101761007057808492604094855283398101031261006b5760208151910151903360018060a01b03196004541617600455600555600655604051612f6590816100878239f35b600080fd5b634e487b7160e01b600052604160045260246000fdfe60a0604052600436101561001b575b361561001957600080fd5b005b60003560e01c806303652027146122cf57806312e8e2c3146122115780631d834409146121f357806321ef0ab81461219257806322dcd13e146121745780634500cb601461211c57806345cb4505146120c35780635911388a14611f5157806366f745471461122f57806378cf1bda14610f865780638ac7d79c14610e745780638da5cb5b14610e4b5780639e2c8ff114610e2d578063a45f2ebc14610db5578063a85c38ef14610c05578063aab3196d1461081d578063ad7e2181146105f1578063b63088b2146104d1578063bd99840e14610393578063d09ef24114610240578063e4cbac40146101b85763f2fde38b0361000e57346101b35760203660031901126101b35761012b6126c6565b600454906001600160a01b03906101453383851614612aca565b1690811561015d576001600160a01b03191617600455005b60405162461bcd60e51b815260206004820152602860248201527f4f72646572547261636b696e673a20496e76616c6964206e6577206f776e6572604482015267206164647265737360c01b6064820152608490fd5b600080fd5b346101b3576020806003193601126101b3576001600160a01b036101da6126c6565b1660005260038152604060002090604051908181845491828152019360005281600020916000905b828210610229576102258561021981890382612527565b6040519182918261279b565b0390f35b835486529485019460019384019390910190610202565b346101b3576020806003193601126101b35760043561025d612a38565b508060005260018252610276604060002054151561293c565b60005260018152604060002090610379600f604051936102958561250b565b805485526102a560018201612810565b8585015260028101546001600160a01b0390811660408701526003820154811660608701526103239060ff906102dd60048501612810565b60808901526102ee60058501612810565b60a0890152600684015460c0890152600784015460e0890152600884015490811661010089015260a01c1661012087016128d2565b6009810154610140860152600a810154610160860152600b810154610180860152610350600c8201612810565b6101a0860152600d8101546101c086015261036d600e8201612810565b6101e086015201612810565b6102008301526102256040519282849384528301906125b4565b346101b3576020806003193601126101b3576004359081600052600181526103c1604060002054151561293c565b816000526001815260ff60086040600020015460a01c1660078110156104bb5760026103ed9114612994565b6000828152600182526040902060038101546001600160a01b0316330361045f5760ff6003600080516020612f108339815191529361045384600860609601908154918560a01b8760a01b198416179055600a4291015560405194859160a01c166125a7565b820152336040820152a2005b60405162461bcd60e51b815260048101839052602e60248201527f4f72646572547261636b696e673a204f6e6c792073656c6c65722063616e206d60448201526d185c9ac8185cc81cda1a5c1c195960921b6064820152608490fd5b634e487b7160e01b600052602160045260246000fd5b346101b3576020806003193601126101b3576004359081600052600181526104ff604060002054151561293c565b816000526001815260ff60086040600020015460a01c1660078110156104bb57600161052b9114612994565b6000828152600182526040902060038101546001600160a01b031633036105925760ff6002600080516020612f10833981519152936104538460086060960190815491600160a11b8760a01b198416179055600a4291015560405194859160a01c166125a7565b60405162461bcd60e51b815260048101839052603160248201527f4f72646572547261636b696e673a204f6e6c792073656c6c65722063616e206d60448201527061726b2061732070726f63657373696e6760781b6064820152608490fd5b346101b3576105ff3661276c565b81600052602060018152610619604060002054151561293c565b82600052600181526106e560406000206040516106358161250b565b8154815261064560018301612810565b8482015260018060a01b0380918160028501541690604081019182526102006106cf600f85600389015416976060850198895261068460048201612810565b608086015261069560058201612810565b60a0860152600681015460c0860152600781015460e086015261032360ff600883015489811661010089015260a01c1661012087016128d2565b9101525116331491821561080f575b50506129ec565b8260005260018152604060002091600883019283549360ff8560a01c169460078610156104bb5785158015610805575b156107a35760ff60a01b1916600560a01b17905542600a90910155600080516020612f108339815191529260609290916005919086907ff2820c9274d611a15d979823ac23bb965c1972a808eebd952297d9bd3a60f4b8906107939061077a84612d2c565b6040519182913383526040878401526040830190612582565b0390a261045360405180946125a7565b60405162461bcd60e51b815260048101869052603460248201527f4f72646572547261636b696e673a2043616e6e6f742063616e63656c206f7264604482015273657220696e2063757272656e742073746174757360601b6064820152608490fd5b5060018614610715565b9091505116331485806106de565b346101b35760403660031901126101b357600760243510156101b3576004356000526001602052610854604060002054151561293c565b60043560005260016020526109856040600020610961600f604051926108798461250b565b8054845261088960018201612810565b602085015260028101546001600160a01b03908116604086015260038201541660608501526108ba60048201612810565b60808501526108cb60058201612810565b60a0850152600681015460c0850152600781015460e085015261090b60ff600883015460018060a01b03811661010088015260a01c1661012086016128d2565b6009810154610140850152600a810154610160850152600b810154610180850152610938600c8201612810565b6101a0850152600d8101546101c0850152610955600e8201612810565b6101e085015201612810565b61020082015260408101516001600160a01b03163314908115610bee575b506129ec565b6004356000526001602052604060002060ff600882015460a01c16906109ad60243583612b16565b15610b9857600460243514610a27575b600560243514610a17575b6109d7602435600883016128de565b600a429101556109ea60405180926125a7565b6109f9602082016024356125a7565b336040820152600080516020612f10833981519152606060043592a2005b610a22600435612d2c565b6109c8565b60028101546001600160a01b03163303610b3b576004356000526001602052600080808060408120604051610a5b8161250b565b81548152610a6b60018301612810565b602082015260028201546001600160a01b0390811660408301526003830154166060820190815290610a9f60048401612810565b6080820152610ab060058401612810565b60a0820152600683015460c0820152610200610afb600f60078601549560e0850196875261032360ff600883015460018060a01b03811661010089015260a01c1661012087016128d2565b910152610b0b4783511115612ccb565b519051906001600160a01b0316828215610b32575bf16109bd575b6040513d6000823e3d90fd5b506108fc610b20565b60405162461bcd60e51b815260206004820152602f60248201527f4f72646572547261636b696e673a204f6e6c792062757965722063616e206d6160448201526e1c9ac8185cc819195b1a5d995c9959608a1b6064820152608490fd5b60405162461bcd60e51b815260206004820152602860248201527f4f72646572547261636b696e673a20496e76616c69642073746174757320747260448201526730b739b4ba34b7b760c11b6064820152608490fd5b606001516001600160a01b0316331490508261097f565b346101b35760203660031901126101b357600435600052600160205260406000208054908060018101610c3790612810565b600282015460038301546001600160a01b039182169116610c5a60048501612810565b91610c6760058601612810565b926006860154936007870154600888015491600989015493600a8a015495600b8b015497600c8c01610c9890612810565b9a600d8d01549c600e01610cab90612810565b9d600f01610cb890612810565b9e6040518060805252610220806080516020015260805101610cd991612582565b9160805160400152608051606001526080518082039060800152610cfc91612582565b6080518082039060a00152610d1091612582565b9560805160c0015260805160e00152600160a01b6001900381166080516101000152608051610120019060a01c60ff1690610d4a916125a7565b608051610140015260805161016001526080516101800152608051808203906101a00152610d7791612582565b906080516101c00152608051808203906101e00152610d9591612582565b9060805180830390610200015260805191610daf91612582565b03608051f35b346101b3576020806003193601126101b3576001600160a01b03610dd76126c6565b1660005260028152604060002090604051908181845491828152019360005281600020916000905b828210610e16576102258561021981890382612527565b835486529485019460019384019390910190610dff565b346101b35760003660031901126101b3576020600654604051908152f35b346101b35760003660031901126101b3576004546040516001600160a01b039091168152602090f35b346101b3576020806003193601126101b357600435908160005260018152610ea2604060002054151561293c565b816000526001815260ff60086040600020015460a01c1660078110156104bb57610ecc9015612994565b6000828152600182526040902060038101546001600160a01b03163303610f325760ff6001600080516020612f108339815191529361045384600860609601908154918560a01b8760a01b198416179055600a4291015560405194859160a01c166125a7565b60405162461bcd60e51b815260048101839052602660248201527f4f72646572547261636b696e673a204f6e6c792073656c6c65722063616e20636044820152656f6e6669726d60d01b6064820152608490fd5b346101b357610f943661276c565b90806000526001916020838152610fb1604060002054151561293c565b60008381528482526040902060038101546001600160a01b031633036111d65760ff600882015460a01c1660078110156104bb57600281149081156111cb575b501561117357600c810183516001600160401b03811161115d5761101582546127d6565b601f8111611114575b508396601f8211600114611095578180917fc1ad49e0edcc5bf3c6c3422a3ba66d76ffb4890cc36b980f4f2e0928ee3e7a00989960009361108a575b501b916000199060031b1c19161790555b600a42910155611085604051928284938452830190612582565b0390a2005b88015192508a61105a565b90601f1981169783600052856000209060005b8a81106110ff5750827fc1ad49e0edcc5bf3c6c3422a3ba66d76ffb4890cc36b980f4f2e0928ee3e7a00999a106110e6575b5050811b01905561106b565b87015160001960f88460031b161c1916905588806110da565b888201518355918401919087019087016110a8565b8260005284600020601f830160051c810191868410611153575b601f0160051c019088905b82811061114757505061101e565b60008155018890611139565b909150819061112e565b634e487b7160e01b600052604160045260246000fd5b60405162461bcd60e51b815260048101839052602a60248201527f4f72646572547261636b696e673a20496e76616c69642073746174757320666f6044820152697220747261636b696e6760b01b6064820152608490fd5b600391501486610ff1565b60405162461bcd60e51b815260048101839052602b60248201527f4f72646572547261636b696e673a204f6e6c792073656c6c65722063616e206160448201526a646420747261636b696e6760a81b6064820152608490fd5b6101003660031901126101b3576112446126c6565b6024356001600160401b0381116101b357611263903690600401612725565b60449081356001600160401b0381116101b357611284903690600401612725565b608492833591906001600160a01b03831683036101b35760c4356001600160401b0381116101b3576112ba903690600401612725565b9460e4356001600160401b0381116101b3576112da903690600401612725565b916001600160a01b03881615611f02576001600160a01b0388163314611eb25760643515611e5a57855115611e0d57865115611db9576006543410611d6d5750506005543481340204811434151715611d57576127109034020461133e81346128b6565b5080158015611d27575b50506113556000546128c3565b948560005561136386612e21565b9461139e60246040518098634f52442d60e01b602083015261138e815180926020868601910161255f565b8101036004810189520187612527565b604051934360208601524260408601523360601b6060860152876074860152607485528460a08101106001600160401b0360a08701111761115d5760a0850160405284516020860120916113f460a0870161250b565b8860a08701528760c08701523360e087015260018060a01b038a166101008701526101208601526101408501526064356101608501523461018085015260018060a01b0385166101a085015260006101c0850152426101e08501524261020085015260a4356102208501526040518060208101106001600160401b0360208301111761115d5760208101604052600081526102408501526102608401526102808301526102a082015283600052600160205260406000209060a0810151825560c08101518051906001600160401b03821161115d5781906114d860018601546127d6565b601f8111611cd4575b50602090601f8311600114611c6257600092611c57575b50508160011b916000199060031b1c19161760018301555b60e08101516002830180546001600160a01b039283166001600160a01b0319918216179091556101008301516003850180549190931691161790556101208101518051906001600160401b03821161115d57819061157160048601546127d6565b601f8111611c04575b50602090601f8311600114611b9257600092611b87575b50508160011b916000199060031b1c19161760048301555b6101408101518051906001600160401b03821161115d5781906115cf60058601546127d6565b601f8111611b34575b50602090601f8311600114611ac257600092611ab7575b50508160011b916000199060031b1c19161760058301555b610160810151600683015561018081015160078301556008820160018060a01b036101a0830151166bffffffffffffffffffffffff60a01b8254161781556101c082015160078110156104bb5761165d916128de565b6101e08101516009830155610200810151600a830155610220810151600b8301556102408101518051906001600160401b03821161115d5781906116a4600c8601546127d6565b601f8111611a64575b50602090601f83116001146119f2576000926119e7575b50508160011b916000199060031b1c191617600c8301555b610260810151600d8301556102808101518051906001600160401b03821161115d5761170b600e8501546127d6565b601f81116119a0575b50602090601f831160011461192e576102a093929160009183611923575b50508160011b916000199060031b1c191617600e8401555b01519081516001600160401b03811161115d5761176a600f8301546127d6565b601f81116118d8575b509585916020978894601f82116001146118485790807fa33d75f744e5e64d7a6fc64776adad8f28aaa0e990ca846e42c4c1dec9ef97bd9596600f9360009261183d575b50508160011b916000199060031b1c1916179101555b33600052600287526117e3836040600020612902565b60018060a01b03811660005260038752611801836040600020612902565b61181660405195606087526060870190612582565b34868901526001600160a01b039485166040870152931693339381900390a4604051908152f35b015190508b806117b7565b601f19821690600f84016000528a6000209160005b8181106118be5750917fa33d75f744e5e64d7a6fc64776adad8f28aaa0e990ca846e42c4c1dec9ef97bd96978492600f95600195106118a5575b505050811b019101556117cd565b015160001960f88460031b161c191690558b8080611897565b828901518455978c01978b97506001909301928c0161185d565b600f83016000526020600020601f830160051c81019160208410611919575b601f0160051c01905b81811061190d5750611773565b60008155600101611900565b90915081906118f7565b015190508980611732565b90600e85016000526020600020916000601f198516905b81811061198857509160019391856102a09796941061196f575b505050811b01600e84015561174a565b015160001960f88460031b161c1916905589808061195f565b92936020600181928786015181550195019301611945565b600e85016000526020600020601f840160051c8101602085106119e0575b601f830160051c820181106119d4575050611714565b600081556001016119be565b50806119be565b0151905088806116c4565b9250600c85016000526020600020906000935b601f1984168510611a49576001945083601f19811610611a30575b505050811b01600c8301556116dc565b015160001960f88460031b161c19169055888080611a20565b81810151835560209485019460019093019290910190611a05565b909150600c85016000526020600020601f840160051c810160208510611ab0575b90849392915b601f830160051c82018110611aa15750506116ad565b60008155859450600101611a8b565b5080611a85565b0151905088806115ef565b9250600585016000526020600020906000935b601f1984168510611b19576001945083601f19811610611b00575b505050811b016005830155611607565b015160001960f88460031b161c19169055888080611af0565b81810151835560209485019460019093019290910190611ad5565b909150600585016000526020600020601f840160051c810160208510611b80575b90849392915b601f830160051c82018110611b715750506115d8565b60008155859450600101611b5b565b5080611b55565b015190508880611591565b9250600485016000526020600020906000935b601f1984168510611be9576001945083601f19811610611bd0575b505050811b0160048301556115a9565b015160001960f88460031b161c19169055888080611bc0565b81810151835560209485019460019093019290910190611ba5565b909150600485016000526020600020601f840160051c810160208510611c50575b90849392915b601f830160051c82018110611c4157505061157a565b60008155859450600101611c2b565b5080611c25565b0151905088806114f8565b9250600185016000526020600020906000935b601f1984168510611cb9576001945083601f19811610611ca0575b505050811b016001830155611510565b015160001960f88460031b161c19169055888080611c90565b81810151835560209485019460019093019290910190611c75565b909150600185016000526020600020601f840160051c810160208510611d20575b90849392915b601f830160051c82018110611d115750506114e1565b60008155859450600101611cfb565b5080611cf5565b6000808093819360018060a01b0360045416908390611d4e575bf115610b26578680611348565b506108fc611d41565b634e487b7160e01b600052601160045260246000fd5b7f4f72646572547261636b696e673a204f726465722076616c756520746f6f206c6040519162461bcd60e51b83526020600484015260226024840152820152616f7760f01b6064820152fd5b7f4f72646572547261636b696e673a204e6574776f726b206964656e74696669656040519162461bcd60e51b835260206004840152602a6024840152820152691c881c995c5d5a5c995960b21b6064820152fd5b7f4f72646572547261636b696e673a2050726f64756374206e616d6520726571756040519162461bcd60e51b835260206004840152602480840152820152631a5c995960e21b6064820152fd5b7f4f72646572547261636b696e673a205175616e74697479206d757374206265206040519162461bcd60e51b835260206004840152602e60248401528201526d067726561746572207468616e20360941b6064820152fd5b7f4f72646572547261636b696e673a2043616e6e6f742073656c6c20746f20796f6040519162461bcd60e51b83526020600484015260266024840152820152653ab939b2b63360d11b6064820152fd5b7f4f72646572547261636b696e673a20496e76616c69642073656c6c65722061646040519162461bcd60e51b8352602060048401526025602484015282015264647265737360d81b6064820152fd5b346101b357611f5f3661276c565b81600052602060018152611f79604060002054151561293c565b8260005260018152611f9560406000206040516106358161250b565b8260005260018152604060002091600883019283549360ff8560a01c16946007861015806104bb57600487141590816120b5575b816120a4575b501561204e5760ff60a01b1916600360a11b17905542600a90910155604051828152600080516020612f10833981519152936060939092600692339188917f4646ed0d1f2caee2a195a8f3d319f69e4ec38380a230313609833977654c2f1f91819061203e9082880190612582565b0390a361045360405180946125a7565b60405162461bcd60e51b815260048101869052602860248201527f4f72646572547261636b696e673a2043616e6e6f74206469737075746520746860448201526734b99037b93232b960c11b6064820152608490fd5b90506104bb57600686141588611fcf565b505060058614156000611fc9565b346101b35760403660031901126101b3576120dc6126c6565b6001600160a01b03166000908152600360205260409020805460243591908210156101b35760209161210d916126dc565b90549060031b1c604051908152f35b346101b35760403660031901126101b3576121356126c6565b6001600160a01b03166000908152600260205260409020805460243591908210156101b357602091612166916126dc565b90546040519160031b1c8152f35b346101b35760003660031901126101b3576020600554604051908152f35b346101b35760203660031901126101b3577fbb4b94b1ccc8c491f90026589f1ae72ba682bf84e2bfb407b549f72d2b0fdb6960406004356121de60018060a01b03600454163314612aca565b600654908060065582519182526020820152a1005b346101b35760003660031901126101b3576020600054604051908152f35b346101b35760203660031901126101b35760043561223a60018060a01b03600454163314612aca565b6103e8811161227c5760407fd347e206f25a89b917fc9482f1a2d294d749baa4dc9bde7fb495ee11fe49164391600554908060055582519182526020820152a1005b60405162461bcd60e51b815260206004820152602560248201527f4f72646572547261636b696e673a2046656520746f6f206869676820286d6178604482015264203130252960d81b6064820152608490fd5b346101b3576020806003193601126101b3576004356001600160401b0381116101b357366023820112156101b35780600401359161230c83612548565b9161231a6040519384612527565b8383528183016024600595861b830101913683116101b3576024849101915b8383106124fb5750505050815161234f81612548565b9061235d6040519283612527565b80825261236c601f1991612548565b018260005b8281106124e55750505060005b835181101561248957806123956123af9286612ab6565b5160005260018085526040600020546123b4575b506128c3565b61237e565b6123be8287612ab6565b51600052808552612467600f60406000206123ea604051946123df8661250b565b825486528201612810565b8489015260028101546001600160a01b03908116604086015260038201548116606086015261090b9060ff9061242260048501612810565b60808801526124328d8501612810565b60a09081890152600685015460c0890152600785015460e089015260088501549182166101008901521c1661012086016128d2565b6102008201526124778285612ab6565b526124828184612ab6565b50866123a9565b60408051848152835181860181905260009281891b830181019186880191889085015b8287106124b95785850386f35b9091929382806124d5600193603f198a820301865288516125b4565b96019201960195929190926124ac565b6124ed612a38565b828286010152018390612371565b8235815291810191849101612339565b61022081019081106001600160401b0382111761115d57604052565b90601f801991011681019081106001600160401b0382111761115d57604052565b6001600160401b03811161115d5760051b60200190565b60005b8381106125725750506000910152565b8181015183820152602001612562565b9060209161259b8151809281855285808601910161255f565b601f01601f1916010190565b9060078210156104bb5752565b906126c391805182526126af6126906125dc6020840151610220806020880152860190612582565b61262661261460018060a01b0392836040880151166040890152836060880151166060890152608087015188820360808a0152612582565b60a086015187820360a0890152612582565b9060c085015160c087015260e085015160e08701526101009081860151169086015261265b61012080860151908701906125a7565b6101408085015190860152610160808501519086015261018080850151908601526101a0808501519086830390870152612582565b6101c080840151908501526101e0808401519085830390860152612582565b916102008092015191818403910152612582565b90565b600435906001600160a01b03821682036101b357565b80548210156126f45760005260206000200190600090565b634e487b7160e01b600052603260045260246000fd5b6001600160401b03811161115d57601f01601f191660200190565b81601f820112156101b35780359061273c8261270a565b9261274a6040519485612527565b828452602083830101116101b357816000926020809301838601378301015290565b9060406003198301126101b35760043591602435906001600160401b0382116101b3576126c391600401612725565b6020908160408183019282815285518094520193019160005b8281106127c2575050505090565b8351855293810193928101926001016127b4565b90600182811c92168015612806575b60208310146127f057565b634e487b7160e01b600052602260045260246000fd5b91607f16916127e5565b9060405191826000825492612824846127d6565b9081845260019485811690816000146128935750600114612850575b505061284e92500383612527565b565b9093915060005260209081600020936000915b81831061287b57505061284e93508201013880612840565b85548884018501529485019487945091830191612863565b91505061284e94506020925060ff191682840152151560051b8201013880612840565b91908203918211611d5757565b6000198114611d575760010190565b60078210156104bb5752565b9060078110156104bb57815460ff60a01b191660a09190911b60ff60a01b16179055565b80546801000000000000000081101561115d57612924916001820181556126dc565b819291549060031b91821b91600019901b1916179055565b1561294357565b60405162461bcd60e51b815260206004820152602360248201527f4f72646572547261636b696e673a204f7264657220646f6573206e6f742065786044820152621a5cdd60ea1b6064820152608490fd5b1561299b57565b60405162461bcd60e51b815260206004820152602360248201527f4f72646572547261636b696e673a20496e76616c6964206f726465722073746160448201526274757360e81b6064820152608490fd5b156129f357565b60405162461bcd60e51b815260206004820152601d60248201527f4f72646572547261636b696e673a204e6f7420617574686f72697a65640000006044820152606490fd5b60405190612a458261250b565b8161020060009182815260609283602083015280604083015280848301528360808301528360a08301528060c08301528060e08301528061010083015280610120830152806101408301528061016083015280610180830152836101a08301526101c0820152826101e08201520152565b80518210156126f45760209160051b010190565b15612ad157565b60405162461bcd60e51b815260206004820152601860248201527f4f72646572547261636b696e673a204e6f74206f776e657200000000000000006044820152606490fd5b600781101591826104bb576004918281149384159485612cbe575b612cb45760078310159485612c9f5760068414612c825750612c6d578015612c465760018114612c0b5760028114612be35760038114612bcc57600614612b7a57505050600090565b82612ba95760018114928315612bbe575b8315612b98575b50505090565b90919250612ba95714388080612b92565b602182634e487b7160e01b6000525260246000fd5b506005811492506000612b8b565b509091612ba957148015612bdd5790565b50600090565b5091612bf657506003148015612bdd5790565b602190634e487b7160e01b6000525260246000fd5b509180612ba95760028314928315612c37575b508215612c2a57505090565b909150612bf65750600090565b60051492506000905038612c1e565b509150600060018314928315612c6257508215612c2a57505090565b600514925038612c1e565b602183634e487b7160e01b6000525260246000fd5b945090929150612bf6575081612c96575090565b60059150141590565b602185634e487b7160e01b6000525260246000fd5b5050505050600090565b5050600060058214612b31565b15612cd257565b60405162461bcd60e51b815260206004820152602c60248201527f4f72646572547261636b696e673a20496e73756666696369656e7420636f6e7460448201526b726163742062616c616e636560a01b6064820152608490fd5b600090815260016020528080808060408120604051612d4a8161250b565b81548152612d5a60018301612810565b602082015260028201546001600160a01b03908116604083019081526003840154821660608401529091612d9060048501612810565b6080820152612da160058501612810565b60a0820152600684015460c0820152610200612de6600f60078701549660e0850197885261032360ff600883015489811661010089015260a01c1661012087016128d2565b910152612df64784511115612ccb565b5116905190828215612e18575bf115612e0c5750565b604051903d90823e3d90fd5b506108fc612e03565b8015612ee15780816000925b612ecd575080612e3c8361270a565b92612e4a6040519485612527565b808452601f19612e598261270a565b01366020860137915b612e6b57505090565b600019820191808311611d575782600a9081840493828502928584041485151715611d5757612e9d60ff9384926128b6565b16603001918211611d5757855111156126f45760f81b6001600160f81b03191660001a908401601f015380612e62565b91612ed9600a916128c3565b920480612e2d565b50604051604081018181106001600160401b0382111761115d5760405260018152600360fc1b60208201529056fe2b230c88a2dfbd05827496c85a5481f5b5fd85a1306a77da91f82d920e231694a2646970667358221220d41f4f6fc9896e592717651b27b3dbf996249deafb229dcb147043b9e72268b464736f6c63430008140033",
  "linkReferences": {},
  "deployedLinkReferences": {}
}