{"contracts/OrderTracking.sol":{"OrderTracking":{"abi":[{"inputs":[{"internalType":"uint256","name":"_platformFeeBps","type":"uint256"},{"internalType":"uint256","name":"_minOrderValue","type":"uint256"}],"stateMutability":"nonpayable","type":"constructor"},{"anonymous":false,"inputs":[{"indexed":false,"internalType":"uint256","name":"oldValue","type":"uint256"},{"indexed":false,"internalType":"uint256","name":"newValue","type":"uint256"}],"name":"MinOrderValueUpdated","type":"event"},{"anonymous":false,"inputs":[{"indexed":true,"internalType":"uint256","name":"orderId","type":"uint256"},{"indexed":false,"internalType":"address","name":"cancelledBy","type":"address"},{"indexed":false,"internalType":"string","name":"reason","type":"string"}],"name":"OrderCancelled","type":"event"},{"anonymous":false,"inputs":[{"indexed":true,"internalType":"uint256","name":"orderId","type":"uint256"},{"indexed":true,"internalType":"address","name":"buyer","type":"address"},{"indexed":true,"internalType":"address","name":"seller","type":"address"},{"indexed":false,"internalType":"string","name":"orderNumber","type":"string"},{"indexed":false,"internalType":"uint256","name":"price","type":"uint256"},{"indexed":false,"internalType":"address","name":"currency","type":"address"}],"name":"OrderCreated","type":"event"},{"anonymous":false,"inputs":[{"indexed":true,"internalType":"uint256","name":"orderId","type":"uint256"},{"indexed":true,"internalType":"address","name":"disputer","type":"address"},{"indexed":false,"internalType":"string","name":"reason","type":"string"}],"name":"OrderDisputed","type":"event"},{"anonymous":false,"inputs":[{"indexed":true,"internalType":"uint256","name":"orderId","type":"uint256"},{"indexed":false,"internalType":"enum OrderTracking.OrderStatus","name":"oldStatus","type":"uint8"},{"indexed":false,"internalType":"enum OrderTracking.OrderStatus","name":"newStatus","type":"uint8"},{"indexed":false,"internalType":"address","name":"updatedBy","type":"address"}],"name":"OrderStatusUpdated","type":"event"},{"anonymous":false,"inputs":[{"indexed":false,"internalType":"uint256","name":"oldFee","type":"uint256"},{"indexed":false,"internalType":"uint256","name":"newFee","type":"uint256"}],"name":"PlatformFeeUpdated","type":"event"},{"anonymous":false,"inputs":[{"indexed":true,"internalType":"uint256","name":"orderId","type":"uint256"},{"indexed":false,"internalType":"string","name":"trackingNumber","type":"string"}],"name":"TrackingNumberAdded","type":"event"},{"inputs":[{"internalType":"uint256","name":"_orderId","type":"uint256"},{"internalType":"string","name":"_trackingNumber","type":"string"}],"name":"addTrackingNumber","outputs":[],"stateMutability":"nonpayable","type":"function"},{"inputs":[{"internalType":"address","name":"","type":"address"},{"internalType":"uint256","name":"","type":"uint256"}],"name":"buyerOrders","outputs":[{"internalType":"uint256","name":"","type":"uint256"}],"stateMutability":"view","type":"function"},{"inputs":[{"internalType":"uint256","name":"_orderId","type":"uint256"},{"internalType":"string","name":"_reason","type":"string"}],"name":"cancelOrder","outputs":[],"stateMutability":"nonpayable","type":"function"},{"inputs":[{"internalType":"uint256","name":"_orderId","type":"uint256"}],"name":"confirmOrder","outputs":[],"stateMutability":"nonpayable","type":"function"},{"inputs":[{"internalType":"address","name":"_seller","type":"address"},{"internalType":"string","name":"_productName","type":"string"},{"internalType":"string","name":"_productDescription","type":"string"},{"internalType":"uint256","name":"_quantity","type":"uint256"},{"internalType":"address","name":"_currency","type":"address"},{"internalType":"uint256","name":"_estimatedDelivery","type":"uint256"},{"internalType":"string","name":"_network","type":"string"},{"internalType":"string","name":"_metadataHash","type":"string"}],"name":"createOrder","outputs":[{"internalType":"uint256","name":"","type":"uint256"}],"stateMutability":"payable","type":"function"},{"inputs":[{"internalType":"uint256","name":"_orderId","type":"uint256"},{"internalType":"string","name":"_reason","type":"string"}],"name":"disputeOrder","outputs":[],"stateMutability":"nonpayable","type":"function"},{"inputs":[{"internalType":"address","name":"_buyer","type":"address"}],"name":"getBuyerOrders","outputs":[{"internalType":"uint256[]","name":"","type":"uint256[]"}],"stateMutability":"view","type":"function"},{"inputs":[{"internalType":"uint256","name":"_orderId","type":"uint256"}],"name":"getOrder","outputs":[{"components":[{"internalType":"uint256","name":"id","type":"uint256"},{"internalType":"string","name":"orderNumber","type":"string"},{"internalType":"address","name":"buyer","type":"address"},{"internalType":"address","name":"seller","type":"address"},{"internalType":"string","name":"productName","type":"string"},{"internalType":"string","name":"productDescription","type":"string"},{"internalType":"uint256","name":"quantity","type":"uint256"},{"internalType":"uint256","name":"price","type":"uint256"},{"internalType":"address","name":"currency","type":"address"},{"internalType":"enum OrderTracking.OrderStatus","name":"status","type":"uint8"},{"internalType":"uint256","name":"createdAt","type":"uint256"},{"internalType":"uint256","name":"updatedAt","type":"uint256"},{"internalType":"uint256","name":"estimatedDelivery","type":"uint256"},{"internalType":"string","name":"trackingNumber","type":"string"},{"internalType":"bytes32","name":"transactionHash","type":"bytes32"},{"internalType":"string","name":"network","type":"string"},{"internalType":"string","name":"metadataHash","type":"string"}],"internalType":"struct OrderTracking.Order","name":"","type":"tuple"}],"stateMutability":"view","type":"function"},{"inputs":[{"internalType":"uint256[]","name":"_orderIds","type":"uint256[]"}],"name":"getOrders","outputs":[{"components":[{"internalType":"uint256","name":"id","type":"uint256"},{"internalType":"string","name":"orderNumber","type":"string"},{"internalType":"address","name":"buyer","type":"address"},{"internalType":"address","name":"seller","type":"address"},{"internalType":"string","name":"productName","type":"string"},{"internalType":"string","name":"productDescription","type":"string"},{"internalType":"uint256","name":"quantity","type":"uint256"},{"internalType":"uint256","name":"price","type":"uint256"},{"internalType":"address","name":"currency","type":"address"},{"internalType":"enum OrderTracking.OrderStatus","name":"status","type":"uint8"},{"internalType":"uint256","name":"createdAt","type":"uint256"},{"internalType":"uint256","name":"updatedAt","type":"uint256"},{"internalType":"uint256","name":"estimatedDelivery","type":"uint256"},{"internalType":"string","name":"trackingNumber","type":"string"},{"internalType":"bytes32","name":"transactionHash","type":"bytes32"},{"internalType":"string","name":"network","type":"string"},{"internalType":"string","name":"metadataHash","type":"string"}],"internalType":"struct OrderTracking.Order[]","name":"","type":"tuple[]"}],"stateMutability":"view","type":"function"},{"inputs":[{"internalType":"address","name":"_seller","type":"address"}],"name":"getSellerOrders","outputs":[{"internalType":"uint256[]","name":"","type":"uint256[]"}],"stateMutability":"view","type":"function"},{"inputs":[{"internalType":"uint256","name":"_orderId","type":"uint256"}],"name":"markAsProcessing","outputs":[],"stateMutability":"nonpayable","type":"function"},{"inputs":[{"internalType":"uint256","name":"_orderId","type":"uint256"}],"name":"markAsShipped","outputs":[],"stateMutability":"nonpayable","type":"function"},{"inputs":[],"name":"minOrderValue","outputs":[{"internalType":"uint256","name":"","type":"uint256"}],"stateMutability":"view","type":"function"},{"inputs":[{"internalType":"uint256","name":"","type":"uint256"}],"name":"orders","outputs":[{"internalType":"uint256","name":"id","type":"uint256"},{"internalType":"string","name":"orderNumber","type":"string"},{"internalType":"address","name":"buyer","type":"address"},{"internalType":"address","name":"seller","type":"address"},{"internalType":"string","name":"productName","type":"string"},{"internalType":"string","name":"productDescription","type":"string"},{"internalType":"uint256","name":"quantity","type":"uint256"},{"internalType":"uint256","name":"price","type":"uint256"},{"internalType":"address","name":"currency","type":"address"},{"internalType":"enum OrderTracking.OrderStatus","name":"status","type":"uint8"},{"internalType":"uint256","name":"createdAt","type":"uint256"},{"internalType":"uint256","name":"updatedAt","type":"uint256"},{"internalType":"uint256","name":"estimatedDelivery","type":"uint256"},{"internalType":"string","name":"trackingNumber","type":"string"},{"internalType":"bytes32","name":"transactionHash","type":"bytes32"},{"internalType":"string","name":"network","type":"string"},{"internalType":"string","name":"metadataHash","type":"string"}],"stateMutability":"view","type":"function"},{"inputs":[],"name":"owner","outputs":[{"internalType":"address","name":"","type":"address"}],"stateMutability":"view","type":"function"},{"inputs":[],"name":"platformFeeBps","outputs":[{"internalType":"uint256","name":"","type":"uint256"}],"stateMutability":"view","type":"function"},{"inputs":[{"internalType":"address","name":"","type":"address"},{"internalType":"uint256","name":"","type":"uint256"}],"name":"sellerOrders","outputs":[{"internalType":"uint256","name":"","type":"uint256"}],"stateMutability":"view","type":"function"},{"inputs":[{"internalType":"uint256","name":"_newValue","type":"uint256"}],"name":"setMinOrderValue","outputs":[],"stateMutability":"nonpayable","type":"function"},{"inputs":[{"internalType":"uint256","name":"_newFee","type":"uint256"}],"name":"setPlatformFee","outputs":[],"stateMutability":"nonpayable","type":"function"},{"inputs":[],"name":"totalOrders","outputs":[{"internalType":"uint256","name":"","type":"uint256"}],"stateMutability":"view","type":"function"},{"inputs":[{"internalType":"address","name":"_newOwner","type":"address"}],"name":"transferOwnership","outputs":[],"stateMutability":"nonpayable","type":"function"},{"inputs":[{"internalType":"uint256","name":"_orderId","type":"uint256"},{"internalType":"enum OrderTracking.OrderStatus","name":"_newStatus","type":"uint8"}],"name":"updateOrderStatus","outputs":[],"stateMutability":"nonpayable","type":"function"},{"stateMutability":"payable","type":"receive"}],"evm":{"bytecode":{"linkReferences":{},"object":"60803461006b57601f612fec38819003918201601f19168301916001600160401b0383118484101761007057808492604094855283398101031261006b5760208151910151903360018060a01b03196004541617600455600555600655604051612f6590816100878239f35b600080fd5b634e487b7160e01b600052604160045260246000fdfe60a0604052600436101561001b575b361561001957600080fd5b005b60003560e01c806303652027146122cf57806312e8e2c3146122115780631d834409146121f357806321ef0ab81461219257806322dcd13e146121745780634500cb601461211c57806345cb4505146120c35780635911388a14611f5157806366f745471461122f57806378cf1bda14610f865780638ac7d79c14610e745780638da5cb5b14610e4b5780639e2c8ff114610e2d578063a45f2ebc14610db5578063a85c38ef14610c05578063aab3196d1461081d578063ad7e2181146105f1578063b63088b2146104d1578063bd99840e14610393578063d09ef24114610240578063e4cbac40146101b85763f2fde38b0361000e57346101b35760203660031901126101b35761012b6126c6565b600454906001600160a01b03906101453383851614612aca565b1690811561015d576001600160a01b03191617600455005b60405162461bcd60e51b815260206004820152602860248201527f4f72646572547261636b696e673a20496e76616c6964206e6577206f776e6572604482015267206164647265737360c01b6064820152608490fd5b600080fd5b346101b3576020806003193601126101b3576001600160a01b036101da6126c6565b1660005260038152604060002090604051908181845491828152019360005281600020916000905b828210610229576102258561021981890382612527565b6040519182918261279b565b0390f35b835486529485019460019384019390910190610202565b346101b3576020806003193601126101b35760043561025d612a38565b508060005260018252610276604060002054151561293c565b60005260018152604060002090610379600f604051936102958561250b565b805485526102a560018201612810565b8585015260028101546001600160a01b0390811660408701526003820154811660608701526103239060ff906102dd60048501612810565b60808901526102ee60058501612810565b60a0890152600684015460c0890152600784015460e0890152600884015490811661010089015260a01c1661012087016128d2565b6009810154610140860152600a810154610160860152600b810154610180860152610350600c8201612810565b6101a0860152600d8101546101c086015261036d600e8201612810565b6101e086015201612810565b6102008301526102256040519282849384528301906125b4565b346101b3576020806003193601126101b3576004359081600052600181526103c1604060002054151561293c565b816000526001815260ff60086040600020015460a01c1660078110156104bb5760026103ed9114612994565b6000828152600182526040902060038101546001600160a01b0316330361045f5760ff6003600080516020612f108339815191529361045384600860609601908154918560a01b8760a01b198416179055600a4291015560405194859160a01c166125a7565b820152336040820152a2005b60405162461bcd60e51b815260048101839052602e60248201527f4f72646572547261636b696e673a204f6e6c792073656c6c65722063616e206d60448201526d185c9ac8185cc81cda1a5c1c195960921b6064820152608490fd5b634e487b7160e01b600052602160045260246000fd5b346101b3576020806003193601126101b3576004359081600052600181526104ff604060002054151561293c565b816000526001815260ff60086040600020015460a01c1660078110156104bb57600161052b9114612994565b6000828152600182526040902060038101546001600160a01b031633036105925760ff6002600080516020612f10833981519152936104538460086060960190815491600160a11b8760a01b198416179055600a4291015560405194859160a01c166125a7565b60405162461bcd60e51b815260048101839052603160248201527f4f72646572547261636b696e673a204f6e6c792073656c6c65722063616e206d60448201527061726b2061732070726f63657373696e6760781b6064820152608490fd5b346101b3576105ff3661276c565b81600052602060018152610619604060002054151561293c565b82600052600181526106e560406000206040516106358161250b565b8154815261064560018301612810565b8482015260018060a01b0380918160028501541690604081019182526102006106cf600f85600389015416976060850198895261068460048201612810565b608086015261069560058201612810565b60a0860152600681015460c0860152600781015460e086015261032360ff600883015489811661010089015260a01c1661012087016128d2565b9101525116331491821561080f575b50506129ec565b8260005260018152604060002091600883019283549360ff8560a01c169460078610156104bb5785158015610805575b156107a35760ff60a01b1916600560a01b17905542600a90910155600080516020612f108339815191529260609290916005919086907ff2820c9274d611a15d979823ac23bb965c1972a808eebd952297d9bd3a60f4b8906107939061077a84612d2c565b6040519182913383526040878401526040830190612582565b0390a261045360405180946125a7565b60405162461bcd60e51b815260048101869052603460248201527f4f72646572547261636b696e673a2043616e6e6f742063616e63656c206f7264604482015273657220696e2063757272656e742073746174757360601b6064820152608490fd5b5060018614610715565b9091505116331485806106de565b346101b35760403660031901126101b357600760243510156101b3576004356000526001602052610854604060002054151561293c565b60043560005260016020526109856040600020610961600f604051926108798461250b565b8054845261088960018201612810565b602085015260028101546001600160a01b03908116604086015260038201541660608501526108ba60048201612810565b60808501526108cb60058201612810565b60a0850152600681015460c0850152600781015460e085015261090b60ff600883015460018060a01b03811661010088015260a01c1661012086016128d2565b6009810154610140850152600a810154610160850152600b810154610180850152610938600c8201612810565b6101a0850152600d8101546101c0850152610955600e8201612810565b6101e085015201612810565b61020082015260408101516001600160a01b03163314908115610bee575b506129ec565b6004356000526001602052604060002060ff600882015460a01c16906109ad60243583612b16565b15610b9857600460243514610a27575b600560243514610a17575b6109d7602435600883016128de565b600a429101556109ea60405180926125a7565b6109f9602082016024356125a7565b336040820152600080516020612f10833981519152606060043592a2005b610a22600435612d2c565b6109c8565b60028101546001600160a01b03163303610b3b576004356000526001602052600080808060408120604051610a5b8161250b565b81548152610a6b60018301612810565b602082015260028201546001600160a01b0390811660408301526003830154166060820190815290610a9f60048401612810565b6080820152610ab060058401612810565b60a0820152600683015460c0820152610200610afb600f60078601549560e0850196875261032360ff600883015460018060a01b03811661010089015260a01c1661012087016128d2565b910152610b0b4783511115612ccb565b519051906001600160a01b0316828215610b32575bf16109bd575b6040513d6000823e3d90fd5b506108fc610b20565b60405162461bcd60e51b815260206004820152602f60248201527f4f72646572547261636b696e673a204f6e6c792062757965722063616e206d6160448201526e1c9ac8185cc819195b1a5d995c9959608a1b6064820152608490fd5b60405162461bcd60e51b815260206004820152602860248201527f4f72646572547261636b696e673a20496e76616c69642073746174757320747260448201526730b739b4ba34b7b760c11b6064820152608490fd5b606001516001600160a01b0316331490508261097f565b346101b35760203660031901126101b357600435600052600160205260406000208054908060018101610c3790612810565b600282015460038301546001600160a01b039182169116610c5a60048501612810565b91610c6760058601612810565b926006860154936007870154600888015491600989015493600a8a015495600b8b015497600c8c01610c9890612810565b9a600d8d01549c600e01610cab90612810565b9d600f01610cb890612810565b9e6040518060805252610220806080516020015260805101610cd991612582565b9160805160400152608051606001526080518082039060800152610cfc91612582565b6080518082039060a00152610d1091612582565b9560805160c0015260805160e00152600160a01b6001900381166080516101000152608051610120019060a01c60ff1690610d4a916125a7565b608051610140015260805161016001526080516101800152608051808203906101a00152610d7791612582565b906080516101c00152608051808203906101e00152610d9591612582565b9060805180830390610200015260805191610daf91612582565b03608051f35b346101b3576020806003193601126101b3576001600160a01b03610dd76126c6565b1660005260028152604060002090604051908181845491828152019360005281600020916000905b828210610e16576102258561021981890382612527565b835486529485019460019384019390910190610dff565b346101b35760003660031901126101b3576020600654604051908152f35b346101b35760003660031901126101b3576004546040516001600160a01b039091168152602090f35b346101b3576020806003193601126101b357600435908160005260018152610ea2604060002054151561293c565b816000526001815260ff60086040600020015460a01c1660078110156104bb57610ecc9015612994565b6000828152600182526040902060038101546001600160a01b03163303610f325760ff6001600080516020612f108339815191529361045384600860609601908154918560a01b8760a01b198416179055600a4291015560405194859160a01c166125a7565b60405162461bcd60e51b815260048101839052602660248201527f4f72646572547261636b696e673a204f6e6c792073656c6c65722063616e20636044820152656f6e6669726d60d01b6064820152608490fd5b346101b357610f943661276c565b90806000526001916020838152610fb1604060002054151561293c565b60008381528482526040902060038101546001600160a01b031633036111d65760ff600882015460a01c1660078110156104bb57600281149081156111cb575b501561117357600c810183516001600160401b03811161115d5761101582546127d6565b601f8111611114575b508396601f8211600114611095578180917fc1ad49e0edcc5bf3c6c3422a3ba66d76ffb4890cc36b980f4f2e0928ee3e7a00989960009361108a575b501b916000199060031b1c19161790555b600a42910155611085604051928284938452830190612582565b0390a2005b88015192508a61105a565b90601f1981169783600052856000209060005b8a81106110ff5750827fc1ad49e0edcc5bf3c6c3422a3ba66d76ffb4890cc36b980f4f2e0928ee3e7a00999a106110e6575b5050811b01905561106b565b87015160001960f88460031b161c1916905588806110da565b888201518355918401919087019087016110a8565b8260005284600020601f830160051c810191868410611153575b601f0160051c019088905b82811061114757505061101e565b60008155018890611139565b909150819061112e565b634e487b7160e01b600052604160045260246000fd5b60405162461bcd60e51b815260048101839052602a60248201527f4f72646572547261636b696e673a20496e76616c69642073746174757320666f6044820152697220747261636b696e6760b01b6064820152608490fd5b600391501486610ff1565b60405162461bcd60e51b815260048101839052602b60248201527f4f72646572547261636b696e673a204f6e6c792073656c6c65722063616e206160448201526a646420747261636b696e6760a81b6064820152608490fd5b6101003660031901126101b3576112446126c6565b6024356001600160401b0381116101b357611263903690600401612725565b60449081356001600160401b0381116101b357611284903690600401612725565b608492833591906001600160a01b03831683036101b35760c4356001600160401b0381116101b3576112ba903690600401612725565b9460e4356001600160401b0381116101b3576112da903690600401612725565b916001600160a01b03881615611f02576001600160a01b0388163314611eb25760643515611e5a57855115611e0d57865115611db9576006543410611d6d5750506005543481340204811434151715611d57576127109034020461133e81346128b6565b5080158015611d27575b50506113556000546128c3565b948560005561136386612e21565b9461139e60246040518098634f52442d60e01b602083015261138e815180926020868601910161255f565b8101036004810189520187612527565b604051934360208601524260408601523360601b6060860152876074860152607485528460a08101106001600160401b0360a08701111761115d5760a0850160405284516020860120916113f460a0870161250b565b8860a08701528760c08701523360e087015260018060a01b038a166101008701526101208601526101408501526064356101608501523461018085015260018060a01b0385166101a085015260006101c0850152426101e08501524261020085015260a4356102208501526040518060208101106001600160401b0360208301111761115d5760208101604052600081526102408501526102608401526102808301526102a082015283600052600160205260406000209060a0810151825560c08101518051906001600160401b03821161115d5781906114d860018601546127d6565b601f8111611cd4575b50602090601f8311600114611c6257600092611c57575b50508160011b916000199060031b1c19161760018301555b60e08101516002830180546001600160a01b039283166001600160a01b0319918216179091556101008301516003850180549190931691161790556101208101518051906001600160401b03821161115d57819061157160048601546127d6565b601f8111611c04575b50602090601f8311600114611b9257600092611b87575b50508160011b916000199060031b1c19161760048301555b6101408101518051906001600160401b03821161115d5781906115cf60058601546127d6565b601f8111611b34575b50602090601f8311600114611ac257600092611ab7575b50508160011b916000199060031b1c19161760058301555b610160810151600683015561018081015160078301556008820160018060a01b036101a0830151166bffffffffffffffffffffffff60a01b8254161781556101c082015160078110156104bb5761165d916128de565b6101e08101516009830155610200810151600a830155610220810151600b8301556102408101518051906001600160401b03821161115d5781906116a4600c8601546127d6565b601f8111611a64575b50602090601f83116001146119f2576000926119e7575b50508160011b916000199060031b1c191617600c8301555b610260810151600d8301556102808101518051906001600160401b03821161115d5761170b600e8501546127d6565b601f81116119a0575b50602090601f831160011461192e576102a093929160009183611923575b50508160011b916000199060031b1c191617600e8401555b01519081516001600160401b03811161115d5761176a600f8301546127d6565b601f81116118d8575b509585916020978894601f82116001146118485790807fa33d75f744e5e64d7a6fc64776adad8f28aaa0e990ca846e42c4c1dec9ef97bd9596600f9360009261183d575b50508160011b916000199060031b1c1916179101555b33600052600287526117e3836040600020612902565b60018060a01b03811660005260038752611801836040600020612902565b61181660405195606087526060870190612582565b34868901526001600160a01b039485166040870152931693339381900390a4604051908152f35b015190508b806117b7565b601f19821690600f84016000528a6000209160005b8181106118be5750917fa33d75f744e5e64d7a6fc64776adad8f28aaa0e990ca846e42c4c1dec9ef97bd96978492600f95600195106118a5575b505050811b019101556117cd565b015160001960f88460031b161c191690558b8080611897565b828901518455978c01978b97506001909301928c0161185d565b600f83016000526020600020601f830160051c81019160208410611919575b601f0160051c01905b81811061190d5750611773565b60008155600101611900565b90915081906118f7565b015190508980611732565b90600e85016000526020600020916000601f198516905b81811061198857509160019391856102a09796941061196f575b505050811b01600e84015561174a565b015160001960f88460031b161c1916905589808061195f565b92936020600181928786015181550195019301611945565b600e85016000526020600020601f840160051c8101602085106119e0575b601f830160051c820181106119d4575050611714565b600081556001016119be565b50806119be565b0151905088806116c4565b9250600c85016000526020600020906000935b601f1984168510611a49576001945083601f19811610611a30575b505050811b01600c8301556116dc565b015160001960f88460031b161c19169055888080611a20565b81810151835560209485019460019093019290910190611a05565b909150600c85016000526020600020601f840160051c810160208510611ab0575b90849392915b601f830160051c82018110611aa15750506116ad565b60008155859450600101611a8b565b5080611a85565b0151905088806115ef565b9250600585016000526020600020906000935b601f1984168510611b19576001945083601f19811610611b00575b505050811b016005830155611607565b015160001960f88460031b161c19169055888080611af0565b81810151835560209485019460019093019290910190611ad5565b909150600585016000526020600020601f840160051c810160208510611b80575b90849392915b601f830160051c82018110611b715750506115d8565b60008155859450600101611b5b565b5080611b55565b015190508880611591565b9250600485016000526020600020906000935b601f1984168510611be9576001945083601f19811610611bd0575b505050811b0160048301556115a9565b015160001960f88460031b161c19169055888080611bc0565b81810151835560209485019460019093019290910190611ba5565b909150600485016000526020600020601f840160051c810160208510611c50575b90849392915b601f830160051c82018110611c4157505061157a565b60008155859450600101611c2b565b5080611c25565b0151905088806114f8565b9250600185016000526020600020906000935b601f1984168510611cb9576001945083601f19811610611ca0575b505050811b016001830155611510565b015160001960f88460031b161c19169055888080611c90565b81810151835560209485019460019093019290910190611c75565b909150600185016000526020600020601f840160051c810160208510611d20575b90849392915b601f830160051c82018110611d115750506114e1565b60008155859450600101611cfb565b5080611cf5565b6000808093819360018060a01b0360045416908390611d4e575bf115610b26578680611348565b506108fc611d41565b634e487b7160e01b600052601160045260246000fd5b7f4f72646572547261636b696e673a204f726465722076616c756520746f6f206c6040519162461bcd60e51b83526020600484015260226024840152820152616f7760f01b6064820152fd5b7f4f72646572547261636b696e673a204e6574776f726b206964656e74696669656040519162461bcd60e51b835260206004840152602a6024840152820152691c881c995c5d5a5c995960b21b6064820152fd5b7f4f72646572547261636b696e673a2050726f64756374206e616d6520726571756040519162461bcd60e51b835260206004840152602480840152820152631a5c995960e21b6064820152fd5b7f4f72646572547261636b696e673a205175616e74697479206d757374206265206040519162461bcd60e51b835260206004840152602e60248401528201526d067726561746572207468616e20360941b6064820152fd5b7f4f72646572547261636b696e673a2043616e6e6f742073656c6c20746f20796f6040519162461bcd60e51b83526020600484015260266024840152820152653ab939b2b63360d11b6064820152fd5b7f4f72646572547261636b696e673a20496e76616c69642073656c6c65722061646040519162461bcd60e51b8352602060048401526025602484015282015264647265737360d81b6064820152fd5b346101b357611f5f3661276c565b81600052602060018152611f79604060002054151561293c565b8260005260018152611f9560406000206040516106358161250b565b8260005260018152604060002091600883019283549360ff8560a01c16946007861015806104bb57600487141590816120b5575b816120a4575b501561204e5760ff60a01b1916600360a11b17905542600a90910155604051828152600080516020612f10833981519152936060939092600692339188917f4646ed0d1f2caee2a195a8f3d319f69e4ec38380a230313609833977654c2f1f91819061203e9082880190612582565b0390a361045360405180946125a7565b60405162461bcd60e51b815260048101869052602860248201527f4f72646572547261636b696e673a2043616e6e6f74206469737075746520746860448201526734b99037b93232b960c11b6064820152608490fd5b90506104bb57600686141588611fcf565b505060058614156000611fc9565b346101b35760403660031901126101b3576120dc6126c6565b6001600160a01b03166000908152600360205260409020805460243591908210156101b35760209161210d916126dc565b90549060031b1c604051908152f35b346101b35760403660031901126101b3576121356126c6565b6001600160a01b03166000908152600260205260409020805460243591908210156101b357602091612166916126dc565b90546040519160031b1c8152f35b346101b35760003660031901126101b3576020600554604051908152f35b346101b35760203660031901126101b3577fbb4b94b1ccc8c491f90026589f1ae72ba682bf84e2bfb407b549f72d2b0fdb6960406004356121de60018060a01b03600454163314612aca565b600654908060065582519182526020820152a1005b346101b35760003660031901126101b3576020600054604051908152f35b346101b35760203660031901126101b35760043561223a60018060a01b03600454163314612aca565b6103e8811161227c5760407fd347e206f25a89b917fc9482f1a2d294d749baa4dc9bde7fb495ee11fe49164391600554908060055582519182526020820152a1005b60405162461bcd60e51b815260206004820152602560248201527f4f72646572547261636b696e673a2046656520746f6f206869676820286d6178604482015264203130252960d81b6064820152608490fd5b346101b3576020806003193601126101b3576004356001600160401b0381116101b357366023820112156101b35780600401359161230c83612548565b9161231a6040519384612527565b8383528183016024600595861b830101913683116101b3576024849101915b8383106124fb5750505050815161234f81612548565b9061235d6040519283612527565b80825261236c601f1991612548565b018260005b8281106124e55750505060005b835181101561248957806123956123af9286612ab6565b5160005260018085526040600020546123b4575b506128c3565b61237e565b6123be8287612ab6565b51600052808552612467600f60406000206123ea604051946123df8661250b565b825486528201612810565b8489015260028101546001600160a01b03908116604086015260038201548116606086015261090b9060ff9061242260048501612810565b60808801526124328d8501612810565b60a09081890152600685015460c0890152600785015460e089015260088501549182166101008901521c1661012086016128d2565b6102008201526124778285612ab6565b526124828184612ab6565b50866123a9565b60408051848152835181860181905260009281891b830181019186880191889085015b8287106124b95785850386f35b9091929382806124d5600193603f198a820301865288516125b4565b96019201960195929190926124ac565b6124ed612a38565b828286010152018390612371565b8235815291810191849101612339565b61022081019081106001600160401b0382111761115d57604052565b90601f801991011681019081106001600160401b0382111761115d57604052565b6001600160401b03811161115d5760051b60200190565b60005b8381106125725750506000910152565b8181015183820152602001612562565b9060209161259b8151809281855285808601910161255f565b601f01601f1916010190565b9060078210156104bb5752565b906126c391805182526126af6126906125dc6020840151610220806020880152860190612582565b61262661261460018060a01b0392836040880151166040890152836060880151166060890152608087015188820360808a0152612582565b60a086015187820360a0890152612582565b9060c085015160c087015260e085015160e08701526101009081860151169086015261265b61012080860151908701906125a7565b6101408085015190860152610160808501519086015261018080850151908601526101a0808501519086830390870152612582565b6101c080840151908501526101e0808401519085830390860152612582565b916102008092015191818403910152612582565b90565b600435906001600160a01b03821682036101b357565b80548210156126f45760005260206000200190600090565b634e487b7160e01b600052603260045260246000fd5b6001600160401b03811161115d57601f01601f191660200190565b81601f820112156101b35780359061273c8261270a565b9261274a6040519485612527565b828452602083830101116101b357816000926020809301838601378301015290565b9060406003198301126101b35760043591602435906001600160401b0382116101b3576126c391600401612725565b6020908160408183019282815285518094520193019160005b8281106127c2575050505090565b8351855293810193928101926001016127b4565b90600182811c92168015612806575b60208310146127f057565b634e487b7160e01b600052602260045260246000fd5b91607f16916127e5565b9060405191826000825492612824846127d6565b9081845260019485811690816000146128935750600114612850575b505061284e92500383612527565b565b9093915060005260209081600020936000915b81831061287b57505061284e93508201013880612840565b85548884018501529485019487945091830191612863565b91505061284e94506020925060ff191682840152151560051b8201013880612840565b91908203918211611d5757565b6000198114611d575760010190565b60078210156104bb5752565b9060078110156104bb57815460ff60a01b191660a09190911b60ff60a01b16179055565b80546801000000000000000081101561115d57612924916001820181556126dc565b819291549060031b91821b91600019901b1916179055565b1561294357565b60405162461bcd60e51b815260206004820152602360248201527f4f72646572547261636b696e673a204f7264657220646f6573206e6f742065786044820152621a5cdd60ea1b6064820152608490fd5b1561299b57565b60405162461bcd60e51b815260206004820152602360248201527f4f72646572547261636b696e673a20496e76616c6964206f726465722073746160448201526274757360e81b6064820152608490fd5b156129f357565b60405162461bcd60e51b815260206004820152601d60248201527f4f72646572547261636b696e673a204e6f7420617574686f72697a65640000006044820152606490fd5b60405190612a458261250b565b8161020060009182815260609283602083015280604083015280848301528360808301528360a08301528060c08301528060e08301528061010083015280610120830152806101408301528061016083015280610180830152836101a08301526101c0820152826101e08201520152565b80518210156126f45760209160051b010190565b15612ad157565b60405162461bcd60e51b815260206004820152601860248201527f4f72646572547261636b696e673a204e6f74206f776e657200000000000000006044820152606490fd5b600781101591826104bb576004918281149384159485612cbe575b612cb45760078310159485612c9f5760068414612c825750612c6d578015612c465760018114612c0b5760028114612be35760038114612bcc57600614612b7a57505050600090565b82612ba95760018114928315612bbe575b8315612b98575b50505090565b90919250612ba95714388080612b92565b602182634e487b7160e01b6000525260246000fd5b506005811492506000612b8b565b509091612ba957148015612bdd5790565b50600090565b5091612bf657506003148015612bdd5790565b602190634e487b7160e01b6000525260246000fd5b509180612ba95760028314928315612c37575b508215612c2a57505090565b909150612bf65750600090565b60051492506000905038612c1e565b509150600060018314928315612c6257508215612c2a57505090565b600514925038612c1e565b602183634e487b7160e01b6000525260246000fd5b945090929150612bf6575081612c96575090565b60059150141590565b602185634e487b7160e01b6000525260246000fd5b5050505050600090565b5050600060058214612b31565b15612cd257565b60405162461bcd60e51b815260206004820152602c60248201527f4f72646572547261636b696e673a20496e73756666696369656e7420636f6e7460448201526b726163742062616c616e636560a01b6064820152608490fd5b600090815260016020528080808060408120604051612d4a8161250b565b81548152612d5a60018301612810565b602082015260028201546001600160a01b03908116604083019081526003840154821660608401529091612d9060048501612810565b6080820152612da160058501612810565b60a0820152600684015460c0820152610200612de6600f60078701549660e0850197885261032360ff600883015489811661010089015260a01c1661012087016128d2565b910152612df64784511115612ccb565b5116905190828215612e18575bf115612e0c5750565b604051903d90823e3d90fd5b506108fc612e03565b8015612ee15780816000925b612ecd575080612e3c8361270a565b92612e4a6040519485612527565b808452601f19612e598261270a565b01366020860137915b612e6b57505090565b600019820191808311611d575782600a9081840493828502928584041485151715611d5757612e9d60ff9384926128b6565b16603001918211611d5757855111156126f45760f81b6001600160f81b03191660001a908401601f015380612e62565b91612ed9600a916128c3565b920480612e2d565b50604051604081018181106001600160401b0382111761115d5760405260018152600360fc1b60208201529056fe2b230c88a2dfbd05827496c85a5481f5b5fd85a1306a77da91f82d920e231694a2646970667358221220d41f4f6fc9896e592717651b27b3dbf996249deafb229dcb147043b9e72268b464736f6c63430008140033","opcodes":"PUSH1 0x80 CALLVALUE PUSH2 0x6B JUMPI PUSH1 0x1F PUSH2 0x2FEC CODESIZE DUP2 SWAP1 SUB SWAP2 DUP3 ADD PUSH1 0x1F NOT AND DUP4 ADD SWAP2 PUSH1 0x1 PUSH1 0x1 PUSH1 0x40 SHL SUB DUP4 GT DUP5 DUP5 LT OR PUSH2 0x70 JUMPI DUP1 DUP5 SWAP3 PUSH1 0x40 SWAP5 DUP6 MSTORE DUP4 CODECOPY DUP2 ADD SUB SLT PUSH2 0x6B JUMPI PUSH1 0x20 DUP2 MLOAD SWAP2 ADD MLOAD SWAP1 CALLER PUSH1 0x1 DUP1 PUSH1 0xA0 SHL SUB NOT PUSH1 0x4 SLOAD AND OR PUSH1 0x4 SSTORE PUSH1 0x5 SSTORE PUSH1 0x6 SSTORE PUSH1 0x40 MLOAD PUSH2 0x2F65 SWAP1 DUP2 PUSH2 0x87 DUP3 CODECOPY RETURN JUMPDEST PUSH1 0x0 DUP1 REVERT JUMPDEST PUSH4 0x4E487B71 PUSH1 0xE0 SHL PUSH1 0x0 MSTORE PUSH1 0x41 PUSH1 0x4 MSTORE PUSH1 0x24 PUSH1 0x0 REVERT INVALID PUSH1 0xA0 PUSH1 0x40 MSTORE PUSH1 0x4 CALLDATASIZE LT ISZERO PUSH2 0x1B JUMPI JUMPDEST CALLDATASIZE ISZERO PUSH2 0x19 JUMPI PUSH1 0x0 DUP1 REVERT JUMPDEST STOP JUMPDEST PUSH1 0x0 CALLDATALOAD PUSH1 0xE0 SHR DUP1 PUSH4 0x3652027 EQ PUSH2 0x22CF JUMPI DUP1 PUSH4 0x12E8E2C3 EQ PUSH2 0x2211 JUMPI DUP1 PUSH4 0x1D834409 EQ PUSH2 0x21F3 JUMPI DUP1 PUSH4 0x21EF0AB8 EQ PUSH2 0x2192 JUMPI DUP1 PUSH4 0x22DCD13E EQ PUSH2 0x2174 JUMPI DUP1 PUSH4 0x4500CB60 EQ PUSH2 0x211C JUMPI DUP1 PUSH4 0x45CB4505 EQ PUSH2 0x20C3 JUMPI DUP1 PUSH4 0x5911388A EQ PUSH2 0x1F51 JUMPI DUP1 PUSH4 0x66F74547 EQ PUSH2 0x122F JUMPI DUP1 PUSH4 0x78CF1BDA EQ PUSH2 0xF86 JUMPI DUP1 PUSH4 0x8AC7D79C EQ PUSH2 0xE74 JUMPI DUP1 PUSH4 0x8DA5CB5B EQ PUSH2 0xE4B JUMPI DUP1 PUSH4 0x9E2C8FF1 EQ PUSH2 0xE2D JUMPI DUP1 PUSH4 0xA45F2EBC EQ PUSH2 0xDB5 JUMPI DUP1 PUSH4 0xA85C38EF EQ PUSH2 0xC05 JUMPI DUP1 PUSH4 0xAAB3196D EQ PUSH2 0x81D JUMPI DUP1 PUSH4 0xAD7E2181 EQ PUSH2 0x5F1 JUMPI DUP1 PUSH4 0xB63088B2 EQ PUSH2 0x4D1 JUMPI DUP1 PUSH4 0xBD99840E EQ PUSH2 0x393 JUMPI DUP1 PUSH4 0xD09EF241 EQ PUSH2 0x240 JUMPI DUP1 PUSH4 0xE4CBAC40 EQ PUSH2 0x1B8 JUMPI PUSH4 0xF2FDE38B SUB PUSH2 0xE JUMPI CALLVALUE PUSH2 0x1B3 JUMPI PUSH1 0x20 CALLDATASIZE PUSH1 0x3 NOT ADD SLT PUSH2 0x1B3 JUMPI PUSH2 0x12B PUSH2 0x26C6 JUMP JUMPDEST PUSH1 0x4 SLOAD SWAP1 PUSH1 0x1 PUSH1 0x1 PUSH1 0xA0 SHL SUB SWAP1 PUSH2 0x145 CALLER DUP4 DUP6 AND EQ PUSH2 0x2ACA JUMP JUMPDEST AND SWAP1 DUP2 ISZERO PUSH2 0x15D JUMPI PUSH1 0x1 PUSH1 0x1 PUSH1 0xA0 SHL SUB NOT AND OR PUSH1 0x4 SSTORE STOP JUMPDEST PUSH1 0x40 MLOAD PUSH3 0x461BCD PUSH1 0xE5 SHL DUP2 MSTORE PUSH1 0x20 PUSH1 0x4 DUP3 ADD MSTORE PUSH1 0x28 PUSH1 0x24 DUP3 ADD MSTORE PUSH32 0x4F72646572547261636B696E673A20496E76616C6964206E6577206F776E6572 PUSH1 0x44 DUP3 ADD MSTORE PUSH8 0x2061646472657373 PUSH1 0xC0 SHL PUSH1 0x64 DUP3 ADD MSTORE PUSH1 0x84 SWAP1 REVERT JUMPDEST PUSH1 0x0 DUP1 REVERT JUMPDEST CALLVALUE PUSH2 0x1B3 JUMPI PUSH1 0x20 DUP1 PUSH1 0x3 NOT CALLDATASIZE ADD SLT PUSH2 0x1B3 JUMPI PUSH1 0x1 PUSH1 0x1 PUSH1 0xA0 SHL SUB PUSH2 0x1DA PUSH2 0x26C6 JUMP JUMPDEST AND PUSH1 0x0 MSTORE PUSH1 0x3 DUP2 MSTORE PUSH1 0x40 PUSH1 0x0 KECCAK256 SWAP1 PUSH1 0x40 MLOAD SWAP1 DUP2 DUP2 DUP5 SLOAD SWAP2 DUP3 DUP2 MSTORE ADD SWAP4 PUSH1 0x0 MSTORE DUP2 PUSH1 0x0 KECCAK256 SWAP2 PUSH1 0x0 SWAP1 JUMPDEST DUP3 DUP3 LT PUSH2 0x229 JUMPI PUSH2 0x225 DUP6 PUSH2 0x219 DUP2 DUP10 SUB DUP3 PUSH2 0x2527 JUMP JUMPDEST PUSH1 0x40 MLOAD SWAP2 DUP3 SWAP2 DUP3 PUSH2 0x279B JUMP JUMPDEST SUB SWAP1 RETURN JUMPDEST DUP4 SLOAD DUP7 MSTORE SWAP5 DUP6 ADD SWAP5 PUSH1 0x1 SWAP4 DUP5 ADD SWAP4 SWAP1 SWAP2 ADD SWAP1 PUSH2 0x202 JUMP JUMPDEST CALLVALUE PUSH2 0x1B3 JUMPI PUSH1 0x20 DUP1 PUSH1 0x3 NOT CALLDATASIZE ADD SLT PUSH2 0x1B3 JUMPI PUSH1 0x4 CALLDATALOAD PUSH2 0x25D PUSH2 0x2A38 JUMP JUMPDEST POP DUP1 PUSH1 0x0 MSTORE PUSH1 0x1 DUP3 MSTORE PUSH2 0x276 PUSH1 0x40 PUSH1 0x0 KECCAK256 SLOAD ISZERO ISZERO PUSH2 0x293C JUMP JUMPDEST PUSH1 0x0 MSTORE PUSH1 0x1 DUP2 MSTORE PUSH1 0x40 PUSH1 0x0 KECCAK256 SWAP1 PUSH2 0x379 PUSH1 0xF PUSH1 0x40 MLOAD SWAP4 PUSH2 0x295 DUP6 PUSH2 0x250B JUMP JUMPDEST DUP1 SLOAD DUP6 MSTORE PUSH2 0x2A5 PUSH1 0x1 DUP3 ADD PUSH2 0x2810 JUMP JUMPDEST DUP6 DUP6 ADD MSTORE PUSH1 0x2 DUP2 ADD SLOAD PUSH1 0x1 PUSH1 0x1 PUSH1 0xA0 SHL SUB SWAP1 DUP2 AND PUSH1 0x40 DUP8 ADD MSTORE PUSH1 0x3 DUP3 ADD SLOAD DUP2 AND PUSH1 0x60 DUP8 ADD MSTORE PUSH2 0x323 SWAP1 PUSH1 0xFF SWAP1 PUSH2 0x2DD PUSH1 0x4 DUP6 ADD PUSH2 0x2810 JUMP JUMPDEST PUSH1 0x80 DUP10 ADD MSTORE PUSH2 0x2EE PUSH1 0x5 DUP6 ADD PUSH2 0x2810 JUMP JUMPDEST PUSH1 0xA0 DUP10 ADD MSTORE PUSH1 0x6 DUP5 ADD SLOAD PUSH1 0xC0 DUP10 ADD MSTORE PUSH1 0x7 DUP5 ADD SLOAD PUSH1 0xE0 DUP10 ADD MSTORE PUSH1 0x8 DUP5 ADD SLOAD SWAP1 DUP2 AND PUSH2 0x100 DUP10 ADD MSTORE PUSH1 0xA0 SHR AND PUSH2 0x120 DUP8 ADD PUSH2 0x28D2 JUMP JUMPDEST PUSH1 0x9 DUP2 ADD SLOAD PUSH2 0x140 DUP7 ADD MSTORE PUSH1 0xA DUP2 ADD SLOAD PUSH2 0x160 DUP7 ADD MSTORE PUSH1 0xB DUP2 ADD SLOAD PUSH2 0x180 DUP7 ADD MSTORE PUSH2 0x350 PUSH1 0xC DUP3 ADD PUSH2 0x2810 JUMP JUMPDEST PUSH2 0x1A0 DUP7 ADD MSTORE PUSH1 0xD DUP2 ADD SLOAD PUSH2 0x1C0 DUP7 ADD MSTORE PUSH2 0x36D PUSH1 0xE DUP3 ADD PUSH2 0x2810 JUMP JUMPDEST PUSH2 0x1E0 DUP7 ADD MSTORE ADD PUSH2 0x2810 JUMP JUMPDEST PUSH2 0x200 DUP4 ADD MSTORE PUSH2 0x225 PUSH1 0x40 MLOAD SWAP3 DUP3 DUP5 SWAP4 DUP5 MSTORE DUP4 ADD SWAP1 PUSH2 0x25B4 JUMP JUMPDEST CALLVALUE PUSH2 0x1B3 JUMPI PUSH1 0x20 DUP1 PUSH1 0x3 NOT CALLDATASIZE ADD SLT PUSH2 0x1B3 JUMPI PUSH1 0x4 CALLDATALOAD SWAP1 DUP2 PUSH1 0x0 MSTORE PUSH1 0x1 DUP2 MSTORE PUSH2 0x3C1 PUSH1 0x40 PUSH1 0x0 KECCAK256 SLOAD ISZERO ISZERO PUSH2 0x293C JUMP JUMPDEST DUP2 PUSH1 0x0 MSTORE PUSH1 0x1 DUP2 MSTORE PUSH1 0xFF PUSH1 0x8 PUSH1 0x40 PUSH1 0x0 KECCAK256 ADD SLOAD PUSH1 0xA0 SHR AND PUSH1 0x7 DUP2 LT ISZERO PUSH2 0x4BB JUMPI PUSH1 0x2 PUSH2 0x3ED SWAP2 EQ PUSH2 0x2994 JUMP JUMPDEST PUSH1 0x0 DUP3 DUP2 MSTORE PUSH1 0x1 DUP3 MSTORE PUSH1 0x40 SWAP1 KECCAK256 PUSH1 0x3 DUP2 ADD SLOAD PUSH1 0x1 PUSH1 0x1 PUSH1 0xA0 SHL SUB AND CALLER SUB PUSH2 0x45F JUMPI PUSH1 0xFF PUSH1 0x3 PUSH1 0x0 DUP1 MLOAD PUSH1 0x20 PUSH2 0x2F10 DUP4 CODECOPY DUP2 MLOAD SWAP2 MSTORE SWAP4 PUSH2 0x453 DUP5 PUSH1 0x8 PUSH1 0x60 SWAP7 ADD SWAP1 DUP2 SLOAD SWAP2 DUP6 PUSH1 0xA0 SHL DUP8 PUSH1 0xA0 SHL NOT DUP5 AND OR SWAP1 SSTORE PUSH1 0xA TIMESTAMP SWAP2 ADD SSTORE PUSH1 0x40 MLOAD SWAP5 DUP6 SWAP2 PUSH1 0xA0 SHR AND PUSH2 0x25A7 JUMP JUMPDEST DUP3 ADD MSTORE CALLER PUSH1 0x40 DUP3 ADD MSTORE LOG2 STOP JUMPDEST PUSH1 0x40 MLOAD PUSH3 0x461BCD PUSH1 0xE5 SHL DUP2 MSTORE PUSH1 0x4 DUP2 ADD DUP4 SWAP1 MSTORE PUSH1 0x2E PUSH1 0x24 DUP3 ADD MSTORE PUSH32 0x4F72646572547261636B696E673A204F6E6C792073656C6C65722063616E206D PUSH1 0x44 DUP3 ADD MSTORE PUSH14 0x185C9AC8185CC81CDA1A5C1C1959 PUSH1 0x92 SHL PUSH1 0x64 DUP3 ADD MSTORE PUSH1 0x84 SWAP1 REVERT JUMPDEST PUSH4 0x4E487B71 PUSH1 0xE0 SHL PUSH1 0x0 MSTORE PUSH1 0x21 PUSH1 0x4 MSTORE PUSH1 0x24 PUSH1 0x0 REVERT JUMPDEST CALLVALUE PUSH2 0x1B3 JUMPI PUSH1 0x20 DUP1 PUSH1 0x3 NOT CALLDATASIZE ADD SLT PUSH2 0x1B3 JUMPI PUSH1 0x4 CALLDATALOAD SWAP1 DUP2 PUSH1 0x0 MSTORE PUSH1 0x1 DUP2 MSTORE PUSH2 0x4FF PUSH1 0x40 PUSH1 0x0 KECCAK256 SLOAD ISZERO ISZERO PUSH2 0x293C JUMP JUMPDEST DUP2 PUSH1 0x0 MSTORE PUSH1 0x1 DUP2 MSTORE PUSH1 0xFF PUSH1 0x8 PUSH1 0x40 PUSH1 0x0 KECCAK256 ADD SLOAD PUSH1 0xA0 SHR AND PUSH1 0x7 DUP2 LT ISZERO PUSH2 0x4BB JUMPI PUSH1 0x1 PUSH2 0x52B SWAP2 EQ PUSH2 0x2994 JUMP JUMPDEST PUSH1 0x0 DUP3 DUP2 MSTORE PUSH1 0x1 DUP3 MSTORE PUSH1 0x40 SWAP1 KECCAK256 PUSH1 0x3 DUP2 ADD SLOAD PUSH1 0x1 PUSH1 0x1 PUSH1 0xA0 SHL SUB AND CALLER SUB PUSH2 0x592 JUMPI PUSH1 0xFF PUSH1 0x2 PUSH1 0x0 DUP1 MLOAD PUSH1 0x20 PUSH2 0x2F10 DUP4 CODECOPY DUP2 MLOAD SWAP2 MSTORE SWAP4 PUSH2 0x453 DUP5 PUSH1 0x8 PUSH1 0x60 SWAP7 ADD SWAP1 DUP2 SLOAD SWAP2 PUSH1 0x1 PUSH1 0xA1 SHL DUP8 PUSH1 0xA0 SHL NOT DUP5 AND OR SWAP1 SSTORE PUSH1 0xA TIMESTAMP SWAP2 ADD SSTORE PUSH1 0x40 MLOAD SWAP5 DUP6 SWAP2 PUSH1 0xA0 SHR AND PUSH2 0x25A7 JUMP JUMPDEST PUSH1 0x40 MLOAD PUSH3 0x461BCD PUSH1 0xE5 SHL DUP2 MSTORE PUSH1 0x4 DUP2 ADD DUP4 SWAP1 MSTORE PUSH1 0x31 PUSH1 0x24 DUP3 ADD MSTORE PUSH32 0x4F72646572547261636B696E673A204F6E6C792073656C6C65722063616E206D PUSH1 0x44 DUP3 ADD MSTORE PUSH17 0x61726B2061732070726F63657373696E67 PUSH1 0x78 SHL PUSH1 0x64 DUP3 ADD MSTORE PUSH1 0x84 SWAP1 REVERT JUMPDEST CALLVALUE PUSH2 0x1B3 JUMPI PUSH2 0x5FF CALLDATASIZE PUSH2 0x276C JUMP JUMPDEST DUP2 PUSH1 0x0 MSTORE PUSH1 0x20 PUSH1 0x1 DUP2 MSTORE PUSH2 0x619 PUSH1 0x40 PUSH1 0x0 KECCAK256 SLOAD ISZERO ISZERO PUSH2 0x293C JUMP JUMPDEST DUP3 PUSH1 0x0 MSTORE PUSH1 0x1 DUP2 MSTORE PUSH2 0x6E5 PUSH1 0x40 PUSH1 0x0 KECCAK256 PUSH1 0x40 MLOAD PUSH2 0x635 DUP2 PUSH2 0x250B JUMP JUMPDEST DUP2 SLOAD DUP2 MSTORE PUSH2 0x645 PUSH1 0x1 DUP4 ADD PUSH2 0x2810 JUMP JUMPDEST DUP5 DUP3 ADD MSTORE PUSH1 0x1 DUP1 PUSH1 0xA0 SHL SUB DUP1 SWAP2 DUP2 PUSH1 0x2 DUP6 ADD SLOAD AND SWAP1 PUSH1 0x40 DUP2 ADD SWAP2 DUP3 MSTORE PUSH2 0x200 PUSH2 0x6CF PUSH1 0xF DUP6 PUSH1 0x3 DUP10 ADD SLOAD AND SWAP8 PUSH1 0x60 DUP6 ADD SWAP9 DUP10 MSTORE PUSH2 0x684 PUSH1 0x4 DUP3 ADD PUSH2 0x2810 JUMP JUMPDEST PUSH1 0x80 DUP7 ADD MSTORE PUSH2 0x695 PUSH1 0x5 DUP3 ADD PUSH2 0x2810 JUMP JUMPDEST PUSH1 0xA0 DUP7 ADD MSTORE PUSH1 0x6 DUP2 ADD SLOAD PUSH1 0xC0 DUP7 ADD MSTORE PUSH1 0x7 DUP2 ADD SLOAD PUSH1 0xE0 DUP7 ADD MSTORE PUSH2 0x323 PUSH1 0xFF PUSH1 0x8 DUP4 ADD SLOAD DUP10 DUP2 AND PUSH2 0x100 DUP10 ADD MSTORE PUSH1 0xA0 SHR AND PUSH2 0x120 DUP8 ADD PUSH2 0x28D2 JUMP JUMPDEST SWAP2 ADD MSTORE MLOAD AND CALLER EQ SWAP2 DUP3 ISZERO PUSH2 0x80F JUMPI JUMPDEST POP POP PUSH2 0x29EC JUMP JUMPDEST DUP3 PUSH1 0x0 MSTORE PUSH1 0x1 DUP2 MSTORE PUSH1 0x40 PUSH1 0x0 KECCAK256 SWAP2 PUSH1 0x8 DUP4 ADD SWAP3 DUP4 SLOAD SWAP4 PUSH1 0xFF DUP6 PUSH1 0xA0 SHR AND SWAP5 PUSH1 0x7 DUP7 LT ISZERO PUSH2 0x4BB JUMPI DUP6 ISZERO DUP1 ISZERO PUSH2 0x805 JUMPI JUMPDEST ISZERO PUSH2 0x7A3 JUMPI PUSH1 0xFF PUSH1 0xA0 SHL NOT AND PUSH1 0x5 PUSH1 0xA0 SHL OR SWAP1 SSTORE TIMESTAMP PUSH1 0xA SWAP1 SWAP2 ADD SSTORE PUSH1 0x0 DUP1 MLOAD PUSH1 0x20 PUSH2 0x2F10 DUP4 CODECOPY DUP2 MLOAD SWAP2 MSTORE SWAP3 PUSH1 0x60 SWAP3 SWAP1 SWAP2 PUSH1 0x5 SWAP2 SWAP1 DUP7 SWAP1 PUSH32 0xF2820C9274D611A15D979823AC23BB965C1972A808EEBD952297D9BD3A60F4B8 SWAP1 PUSH2 0x793 SWAP1 PUSH2 0x77A DUP5 PUSH2 0x2D2C JUMP JUMPDEST PUSH1 0x40 MLOAD SWAP2 DUP3 SWAP2 CALLER DUP4 MSTORE PUSH1 0x40 DUP8 DUP5 ADD MSTORE PUSH1 0x40 DUP4 ADD SWAP1 PUSH2 0x2582 JUMP JUMPDEST SUB SWAP1 LOG2 PUSH2 0x453 PUSH1 0x40 MLOAD DUP1 SWAP5 PUSH2 0x25A7 JUMP JUMPDEST PUSH1 0x40 MLOAD PUSH3 0x461BCD PUSH1 0xE5 SHL DUP2 MSTORE PUSH1 0x4 DUP2 ADD DUP7 SWAP1 MSTORE PUSH1 0x34 PUSH1 0x24 DUP3 ADD MSTORE PUSH32 0x4F72646572547261636B696E673A2043616E6E6F742063616E63656C206F7264 PUSH1 0x44 DUP3 ADD MSTORE PUSH20 0x657220696E2063757272656E7420737461747573 PUSH1 0x60 SHL PUSH1 0x64 DUP3 ADD MSTORE PUSH1 0x84 SWAP1 REVERT JUMPDEST POP PUSH1 0x1 DUP7 EQ PUSH2 0x715 JUMP JUMPDEST SWAP1 SWAP2 POP MLOAD AND CALLER EQ DUP6 DUP1 PUSH2 0x6DE JUMP JUMPDEST CALLVALUE PUSH2 0x1B3 JUMPI PUSH1 0x40 CALLDATASIZE PUSH1 0x3 NOT ADD SLT PUSH2 0x1B3 JUMPI PUSH1 0x7 PUSH1 0x24 CALLDATALOAD LT ISZERO PUSH2 0x1B3 JUMPI PUSH1 0x4 CALLDATALOAD PUSH1 0x0 MSTORE PUSH1 0x1 PUSH1 0x20 MSTORE PUSH2 0x854 PUSH1 0x40 PUSH1 0x0 KECCAK256 SLOAD ISZERO ISZERO PUSH2 0x293C JUMP JUMPDEST PUSH1 0x4 CALLDATALOAD PUSH1 0x0 MSTORE PUSH1 0x1 PUSH1 0x20 MSTORE PUSH2 0x985 PUSH1 0x40 PUSH1 0x0 KECCAK256 PUSH2 0x961 PUSH1 0xF PUSH1 0x40 MLOAD SWAP3 PUSH2 0x879 DUP5 PUSH2 0x250B JUMP JUMPDEST DUP1 SLOAD DUP5 MSTORE PUSH2 0x889 PUSH1 0x1 DUP3 ADD PUSH2 0x2810 JUMP JUMPDEST PUSH1 0x20 DUP6 ADD MSTORE PUSH1 0x2 DUP2 ADD SLOAD PUSH1 0x1 PUSH1 0x1 PUSH1 0xA0 SHL SUB SWAP1 DUP2 AND PUSH1 0x40 DUP7 ADD MSTORE PUSH1 0x3 DUP3 ADD SLOAD AND PUSH1 0x60 DUP6 ADD MSTORE PUSH2 0x8BA PUSH1 0x4 DUP3 ADD PUSH2 0x2810 JUMP JUMPDEST PUSH1 0x80 DUP6 ADD MSTORE PUSH2 0x8CB PUSH1 0x5 DUP3 ADD PUSH2 0x2810 JUMP JUMPDEST PUSH1 0xA0 DUP6 ADD MSTORE PUSH1 0x6 DUP2 ADD SLOAD PUSH1 0xC0 DUP6 ADD MSTORE PUSH1 0x7 DUP2 ADD SLOAD PUSH1 0xE0 DUP6 ADD MSTORE PUSH2 0x90B PUSH1 0xFF PUSH1 0x8 DUP4 ADD SLOAD PUSH1 0x1 DUP1 PUSH1 0xA0 SHL SUB DUP2 AND PUSH2 0x100 DUP9 ADD MSTORE PUSH1 0xA0 SHR AND PUSH2 0x120 DUP7 ADD PUSH2 0x28D2 JUMP JUMPDEST PUSH1 0x9 DUP2 ADD SLOAD PUSH2 0x140 DUP6 ADD MSTORE PUSH1 0xA DUP2 ADD SLOAD PUSH2 0x160 DUP6 ADD MSTORE PUSH1 0xB DUP2 ADD SLOAD PUSH2 0x180 DUP6 ADD MSTORE PUSH2 0x938 PUSH1 0xC DUP3 ADD PUSH2 0x2810 JUMP JUMPDEST PUSH2 0x1A0 DUP6 ADD MSTORE PUSH1 0xD DUP2 ADD SLOAD PUSH2 0x1C0 DUP6 ADD MSTORE PUSH2 0x955 PUSH1 0xE DUP3 ADD PUSH2 0x2810 JUMP JUMPDEST PUSH2 0x1E0 DUP6 ADD MSTORE ADD PUSH2 0x2810 JUMP JUMPDEST PUSH2 0x200 DUP3 ADD MSTORE PUSH1 0x40 DUP2 ADD MLOAD PUSH1 0x1 PUSH1 0x1 PUSH1 0xA0 SHL SUB AND CALLER EQ SWAP1 DUP2 ISZERO PUSH2 0xBEE JUMPI JUMPDEST POP PUSH2 0x29EC JUMP JUMPDEST PUSH1 0x4 CALLDATALOAD PUSH1 0x0 MSTORE PUSH1 0x1 PUSH1 0x20 MSTORE PUSH1 0x40 PUSH1 0x0 KECCAK256 PUSH1 0xFF PUSH1 0x8 DUP3 ADD SLOAD PUSH1 0xA0 SHR AND SWAP1 PUSH2 0x9AD PUSH1 0x24 CALLDATALOAD DUP4 PUSH2 0x2B16 JUMP JUMPDEST ISZERO PUSH2 0xB98 JUMPI PUSH1 0x4 PUSH1 0x24 CALLDATALOAD EQ PUSH2 0xA27 JUMPI JUMPDEST PUSH1 0x5 PUSH1 0x24 CALLDATALOAD EQ PUSH2 0xA17 JUMPI JUMPDEST PUSH2 0x9D7 PUSH1 0x24 CALLDATALOAD PUSH1 0x8 DUP4 ADD PUSH2 0x28DE JUMP JUMPDEST PUSH1 0xA TIMESTAMP SWAP2 ADD SSTORE PUSH2 0x9EA PUSH1 0x40 MLOAD DUP1 SWAP3 PUSH2 0x25A7 JUMP JUMPDEST PUSH2 0x9F9 PUSH1 0x20 DUP3 ADD PUSH1 0x24 CALLDATALOAD PUSH2 0x25A7 JUMP JUMPDEST CALLER PUSH1 0x40 DUP3 ADD MSTORE PUSH1 0x0 DUP1 MLOAD PUSH1 0x20 PUSH2 0x2F10 DUP4 CODECOPY DUP2 MLOAD SWAP2 MSTORE PUSH1 0x60 PUSH1 0x4 CALLDATALOAD SWAP3 LOG2 STOP JUMPDEST PUSH2 0xA22 PUSH1 0x4 CALLDATALOAD PUSH2 0x2D2C JUMP JUMPDEST PUSH2 0x9C8 JUMP JUMPDEST PUSH1 0x2 DUP2 ADD SLOAD PUSH1 0x1 PUSH1 0x1 PUSH1 0xA0 SHL SUB AND CALLER SUB PUSH2 0xB3B JUMPI PUSH1 0x4 CALLDATALOAD PUSH1 0x0 MSTORE PUSH1 0x1 PUSH1 0x20 MSTORE PUSH1 0x0 DUP1 DUP1 DUP1 PUSH1 0x40 DUP2 KECCAK256 PUSH1 0x40 MLOAD PUSH2 0xA5B DUP2 PUSH2 0x250B JUMP JUMPDEST DUP2 SLOAD DUP2 MSTORE PUSH2 0xA6B PUSH1 0x1 DUP4 ADD PUSH2 0x2810 JUMP JUMPDEST PUSH1 0x20 DUP3 ADD MSTORE PUSH1 0x2 DUP3 ADD SLOAD PUSH1 0x1 PUSH1 0x1 PUSH1 0xA0 SHL SUB SWAP1 DUP2 AND PUSH1 0x40 DUP4 ADD MSTORE PUSH1 0x3 DUP4 ADD SLOAD AND PUSH1 0x60 DUP3 ADD SWAP1 DUP2 MSTORE SWAP1 PUSH2 0xA9F PUSH1 0x4 DUP5 ADD PUSH2 0x2810 JUMP JUMPDEST PUSH1 0x80 DUP3 ADD MSTORE PUSH2 0xAB0 PUSH1 0x5 DUP5 ADD PUSH2 0x2810 JUMP JUMPDEST PUSH1 0xA0 DUP3 ADD MSTORE PUSH1 0x6 DUP4 ADD SLOAD PUSH1 0xC0 DUP3 ADD MSTORE PUSH2 0x200 PUSH2 0xAFB PUSH1 0xF PUSH1 0x7 DUP7 ADD SLOAD SWAP6 PUSH1 0xE0 DUP6 ADD SWAP7 DUP8 MSTORE PUSH2 0x323 PUSH1 0xFF PUSH1 0x8 DUP4 ADD SLOAD PUSH1 0x1 DUP1 PUSH1 0xA0 SHL SUB DUP2 AND PUSH2 0x100 DUP10 ADD MSTORE PUSH1 0xA0 SHR AND PUSH2 0x120 DUP8 ADD PUSH2 0x28D2 JUMP JUMPDEST SWAP2 ADD MSTORE PUSH2 0xB0B SELFBALANCE DUP4 MLOAD GT ISZERO PUSH2 0x2CCB JUMP JUMPDEST MLOAD SWAP1 MLOAD SWAP1 PUSH1 0x1 PUSH1 0x1 PUSH1 0xA0 SHL SUB AND DUP3 DUP3 ISZERO PUSH2 0xB32 JUMPI JUMPDEST CALL PUSH2 0x9BD JUMPI JUMPDEST PUSH1 0x40 MLOAD RETURNDATASIZE PUSH1 0x0 DUP3 RETURNDATACOPY RETURNDATASIZE SWAP1 REVERT JUMPDEST POP PUSH2 0x8FC PUSH2 0xB20 JUMP JUMPDEST PUSH1 0x40 MLOAD PUSH3 0x461BCD PUSH1 0xE5 SHL DUP2 MSTORE PUSH1 0x20 PUSH1 0x4 DUP3 ADD MSTORE PUSH1 0x2F PUSH1 0x24 DUP3 ADD MSTORE PUSH32 0x4F72646572547261636B696E673A204F6E6C792062757965722063616E206D61 PUSH1 0x44 DUP3 ADD MSTORE PUSH15 0x1C9AC8185CC819195B1A5D995C9959 PUSH1 0x8A SHL PUSH1 0x64 DUP3 ADD MSTORE PUSH1 0x84 SWAP1 REVERT JUMPDEST PUSH1 0x40 MLOAD PUSH3 0x461BCD PUSH1 0xE5 SHL DUP2 MSTORE PUSH1 0x20 PUSH1 0x4 DUP3 ADD MSTORE PUSH1 0x28 PUSH1 0x24 DUP3 ADD MSTORE PUSH32 0x4F72646572547261636B696E673A20496E76616C696420737461747573207472 PUSH1 0x44 DUP3 ADD MSTORE PUSH8 0x30B739B4BA34B7B7 PUSH1 0xC1 SHL PUSH1 0x64 DUP3 ADD MSTORE PUSH1 0x84 SWAP1 REVERT JUMPDEST PUSH1 0x60 ADD MLOAD PUSH1 0x1 PUSH1 0x1 PUSH1 0xA0 SHL SUB AND CALLER EQ SWAP1 POP DUP3 PUSH2 0x97F JUMP JUMPDEST CALLVALUE PUSH2 0x1B3 JUMPI PUSH1 0x20 CALLDATASIZE PUSH1 0x3 NOT ADD SLT PUSH2 0x1B3 JUMPI PUSH1 0x4 CALLDATALOAD PUSH1 0x0 MSTORE PUSH1 0x1 PUSH1 0x20 MSTORE PUSH1 0x40 PUSH1 0x0 KECCAK256 DUP1 SLOAD SWAP1 DUP1 PUSH1 0x1 DUP2 ADD PUSH2 0xC37 SWAP1 PUSH2 0x2810 JUMP JUMPDEST PUSH1 0x2 DUP3 ADD SLOAD PUSH1 0x3 DUP4 ADD SLOAD PUSH1 0x1 PUSH1 0x1 PUSH1 0xA0 SHL SUB SWAP2 DUP3 AND SWAP2 AND PUSH2 0xC5A PUSH1 0x4 DUP6 ADD PUSH2 0x2810 JUMP JUMPDEST SWAP2 PUSH2 0xC67 PUSH1 0x5 DUP7 ADD PUSH2 0x2810 JUMP JUMPDEST SWAP3 PUSH1 0x6 DUP7 ADD SLOAD SWAP4 PUSH1 0x7 DUP8 ADD SLOAD PUSH1 0x8 DUP9 ADD SLOAD SWAP2 PUSH1 0x9 DUP10 ADD SLOAD SWAP4 PUSH1 0xA DUP11 ADD SLOAD SWAP6 PUSH1 0xB DUP12 ADD SLOAD SWAP8 PUSH1 0xC DUP13 ADD PUSH2 0xC98 SWAP1 PUSH2 0x2810 JUMP JUMPDEST SWAP11 PUSH1 0xD DUP14 ADD SLOAD SWAP13 PUSH1 0xE ADD PUSH2 0xCAB SWAP1 PUSH2 0x2810 JUMP JUMPDEST SWAP14 PUSH1 0xF ADD PUSH2 0xCB8 SWAP1 PUSH2 0x2810 JUMP JUMPDEST SWAP15 PUSH1 0x40 MLOAD DUP1 PUSH1 0x80 MSTORE MSTORE PUSH2 0x220 DUP1 PUSH1 0x80 MLOAD PUSH1 0x20 ADD MSTORE PUSH1 0x80 MLOAD ADD PUSH2 0xCD9 SWAP2 PUSH2 0x2582 JUMP JUMPDEST SWAP2 PUSH1 0x80 MLOAD PUSH1 0x40 ADD MSTORE PUSH1 0x80 MLOAD PUSH1 0x60 ADD MSTORE PUSH1 0x80 MLOAD DUP1 DUP3 SUB SWAP1 PUSH1 0x80 ADD MSTORE PUSH2 0xCFC SWAP2 PUSH2 0x2582 JUMP JUMPDEST PUSH1 0x80 MLOAD DUP1 DUP3 SUB SWAP1 PUSH1 0xA0 ADD MSTORE PUSH2 0xD10 SWAP2 PUSH2 0x2582 JUMP JUMPDEST SWAP6 PUSH1 0x80 MLOAD PUSH1 0xC0 ADD MSTORE PUSH1 0x80 MLOAD PUSH1 0xE0 ADD MSTORE PUSH1 0x1 PUSH1 0xA0 SHL PUSH1 0x1 SWAP1 SUB DUP2 AND PUSH1 0x80 MLOAD PUSH2 0x100 ADD MSTORE PUSH1 0x80 MLOAD PUSH2 0x120 ADD SWAP1 PUSH1 0xA0 SHR PUSH1 0xFF AND SWAP1 PUSH2 0xD4A SWAP2 PUSH2 0x25A7 JUMP JUMPDEST PUSH1 0x80 MLOAD PUSH2 0x140 ADD MSTORE PUSH1 0x80 MLOAD PUSH2 0x160 ADD MSTORE PUSH1 0x80 MLOAD PUSH2 0x180 ADD MSTORE PUSH1 0x80 MLOAD DUP1 DUP3 SUB SWAP1 PUSH2 0x1A0 ADD MSTORE PUSH2 0xD77 SWAP2 PUSH2 0x2582 JUMP JUMPDEST SWAP1 PUSH1 0x80 MLOAD PUSH2 0x1C0 ADD MSTORE PUSH1 0x80 MLOAD DUP1 DUP3 SUB SWAP1 PUSH2 0x1E0 ADD MSTORE PUSH2 0xD95 SWAP2 PUSH2 0x2582 JUMP JUMPDEST SWAP1 PUSH1 0x80 MLOAD DUP1 DUP4 SUB SWAP1 PUSH2 0x200 ADD MSTORE PUSH1 0x80 MLOAD SWAP2 PUSH2 0xDAF SWAP2 PUSH2 0x2582 JUMP JUMPDEST SUB PUSH1 0x80 MLOAD RETURN JUMPDEST CALLVALUE PUSH2 0x1B3 JUMPI PUSH1 0x20 DUP1 PUSH1 0x3 NOT CALLDATASIZE ADD SLT PUSH2 0x1B3 JUMPI PUSH1 0x1 PUSH1 0x1 PUSH1 0xA0 SHL SUB PUSH2 0xDD7 PUSH2 0x26C6 JUMP JUMPDEST AND PUSH1 0x0 MSTORE PUSH1 0x2 DUP2 MSTORE PUSH1 0x40 PUSH1 0x0 KECCAK256 SWAP1 PUSH1 0x40 MLOAD SWAP1 DUP2 DUP2 DUP5 SLOAD SWAP2 DUP3 DUP2 MSTORE ADD SWAP4 PUSH1 0x0 MSTORE DUP2 PUSH1 0x0 KECCAK256 SWAP2 PUSH1 0x0 SWAP1 JUMPDEST DUP3 DUP3 LT PUSH2 0xE16 JUMPI PUSH2 0x225 DUP6 PUSH2 0x219 DUP2 DUP10 SUB DUP3 PUSH2 0x2527 JUMP JUMPDEST DUP4 SLOAD DUP7 MSTORE SWAP5 DUP6 ADD SWAP5 PUSH1 0x1 SWAP4 DUP5 ADD SWAP4 SWAP1 SWAP2 ADD SWAP1 PUSH2 0xDFF JUMP JUMPDEST CALLVALUE PUSH2 0x1B3 JUMPI PUSH1 0x0 CALLDATASIZE PUSH1 0x3 NOT ADD SLT PUSH2 0x1B3 JUMPI PUSH1 0x20 PUSH1 0x6 SLOAD PUSH1 0x40 MLOAD SWAP1 DUP2 MSTORE RETURN JUMPDEST CALLVALUE PUSH2 0x1B3 JUMPI PUSH1 0x0 CALLDATASIZE PUSH1 0x3 NOT ADD SLT PUSH2 0x1B3 JUMPI PUSH1 0x4 SLOAD PUSH1 0x40 MLOAD PUSH1 0x1 PUSH1 0x1 PUSH1 0xA0 SHL SUB SWAP1 SWAP2 AND DUP2 MSTORE PUSH1 0x20 SWAP1 RETURN JUMPDEST CALLVALUE PUSH2 0x1B3 JUMPI PUSH1 0x20 DUP1 PUSH1 0x3 NOT CALLDATASIZE ADD SLT PUSH2 0x1B3 JUMPI PUSH1 0x4 CALLDATALOAD SWAP1 DUP2 PUSH1 0x0 MSTORE PUSH1 0x1 DUP2 MSTORE PUSH2 0xEA2 PUSH1 0x40 PUSH1 0x0 KECCAK256 SLOAD ISZERO ISZERO PUSH2 0x293C JUMP JUMPDEST DUP2 PUSH1 0x0 MSTORE PUSH1 0x1 DUP2 MSTORE PUSH1 0xFF PUSH1 0x8 PUSH1 0x40 PUSH1 0x0 KECCAK256 ADD SLOAD PUSH1 0xA0 SHR AND PUSH1 0x7 DUP2 LT ISZERO PUSH2 0x4BB JUMPI PUSH2 0xECC SWAP1 ISZERO PUSH2 0x2994 JUMP JUMPDEST PUSH1 0x0 DUP3 DUP2 MSTORE PUSH1 0x1 DUP3 MSTORE PUSH1 0x40 SWAP1 KECCAK256 PUSH1 0x3 DUP2 ADD SLOAD PUSH1 0x1 PUSH1 0x1 PUSH1 0xA0 SHL SUB AND CALLER SUB PUSH2 0xF32 JUMPI PUSH1 0xFF PUSH1 0x1 PUSH1 0x0 DUP1 MLOAD PUSH1 0x20 PUSH2 0x2F10 DUP4 CODECOPY DUP2 MLOAD SWAP2 MSTORE SWAP4 PUSH2 0x453 DUP5 PUSH1 0x8 PUSH1 0x60 SWAP7 ADD SWAP1 DUP2 SLOAD SWAP2 DUP6 PUSH1 0xA0 SHL DUP8 PUSH1 0xA0 SHL NOT DUP5 AND OR SWAP1 SSTORE PUSH1 0xA TIMESTAMP SWAP2 ADD SSTORE PUSH1 0x40 MLOAD SWAP5 DUP6 SWAP2 PUSH1 0xA0 SHR AND PUSH2 0x25A7 JUMP JUMPDEST PUSH1 0x40 MLOAD PUSH3 0x461BCD PUSH1 0xE5 SHL DUP2 MSTORE PUSH1 0x4 DUP2 ADD DUP4 SWAP1 MSTORE PUSH1 0x26 PUSH1 0x24 DUP3 ADD MSTORE PUSH32 0x4F72646572547261636B696E673A204F6E6C792073656C6C65722063616E2063 PUSH1 0x44 DUP3 ADD MSTORE PUSH6 0x6F6E6669726D PUSH1 0xD0 SHL PUSH1 0x64 DUP3 ADD MSTORE PUSH1 0x84 SWAP1 REVERT JUMPDEST CALLVALUE PUSH2 0x1B3 JUMPI PUSH2 0xF94 CALLDATASIZE PUSH2 0x276C JUMP JUMPDEST SWAP1 DUP1 PUSH1 0x0 MSTORE PUSH1 0x1 SWAP2 PUSH1 0x20 DUP4 DUP2 MSTORE PUSH2 0xFB1 PUSH1 0x40 PUSH1 0x0 KECCAK256 SLOAD ISZERO ISZERO PUSH2 0x293C JUMP JUMPDEST PUSH1 0x0 DUP4 DUP2 MSTORE DUP5 DUP3 MSTORE PUSH1 0x40 SWAP1 KECCAK256 PUSH1 0x3 DUP2 ADD SLOAD PUSH1 0x1 PUSH1 0x1 PUSH1 0xA0 SHL SUB AND CALLER SUB PUSH2 0x11D6 JUMPI PUSH1 0xFF PUSH1 0x8 DUP3 ADD SLOAD PUSH1 0xA0 SHR AND PUSH1 0x7 DUP2 LT ISZERO PUSH2 0x4BB JUMPI PUSH1 0x2 DUP2 EQ SWAP1 DUP2 ISZERO PUSH2 0x11CB JUMPI JUMPDEST POP ISZERO PUSH2 0x1173 JUMPI PUSH1 0xC DUP2 ADD DUP4 MLOAD PUSH1 0x1 PUSH1 0x1 PUSH1 0x40 SHL SUB DUP2 GT PUSH2 0x115D JUMPI PUSH2 0x1015 DUP3 SLOAD PUSH2 0x27D6 JUMP JUMPDEST PUSH1 0x1F DUP2 GT PUSH2 0x1114 JUMPI JUMPDEST POP DUP4 SWAP7 PUSH1 0x1F DUP3 GT PUSH1 0x1 EQ PUSH2 0x1095 JUMPI DUP2 DUP1 SWAP2 PUSH32 0xC1AD49E0EDCC5BF3C6C3422A3BA66D76FFB4890CC36B980F4F2E0928EE3E7A00 SWAP9 SWAP10 PUSH1 0x0 SWAP4 PUSH2 0x108A JUMPI JUMPDEST POP SHL SWAP2 PUSH1 0x0 NOT SWAP1 PUSH1 0x3 SHL SHR NOT AND OR SWAP1 SSTORE JUMPDEST PUSH1 0xA TIMESTAMP SWAP2 ADD SSTORE PUSH2 0x1085 PUSH1 0x40 MLOAD SWAP3 DUP3 DUP5 SWAP4 DUP5 MSTORE DUP4 ADD SWAP1 PUSH2 0x2582 JUMP JUMPDEST SUB SWAP1 LOG2 STOP JUMPDEST DUP9 ADD MLOAD SWAP3 POP DUP11 PUSH2 0x105A JUMP JUMPDEST SWAP1 PUSH1 0x1F NOT DUP2 AND SWAP8 DUP4 PUSH1 0x0 MSTORE DUP6 PUSH1 0x0 KECCAK256 SWAP1 PUSH1 0x0 JUMPDEST DUP11 DUP2 LT PUSH2 0x10FF JUMPI POP DUP3 PUSH32 0xC1AD49E0EDCC5BF3C6C3422A3BA66D76FFB4890CC36B980F4F2E0928EE3E7A00 SWAP10 SWAP11 LT PUSH2 0x10E6 JUMPI JUMPDEST POP POP DUP2 SHL ADD SWAP1 SSTORE PUSH2 0x106B JUMP JUMPDEST DUP8 ADD MLOAD PUSH1 0x0 NOT PUSH1 0xF8 DUP5 PUSH1 0x3 SHL AND SHR NOT AND SWAP1 SSTORE DUP9 DUP1 PUSH2 0x10DA JUMP JUMPDEST DUP9 DUP3 ADD MLOAD DUP4 SSTORE SWAP2 DUP5 ADD SWAP2 SWAP1 DUP8 ADD SWAP1 DUP8 ADD PUSH2 0x10A8 JUMP JUMPDEST DUP3 PUSH1 0x0 MSTORE DUP5 PUSH1 0x0 KECCAK256 PUSH1 0x1F DUP4 ADD PUSH1 0x5 SHR DUP2 ADD SWAP2 DUP7 DUP5 LT PUSH2 0x1153 JUMPI JUMPDEST PUSH1 0x1F ADD PUSH1 0x5 SHR ADD SWAP1 DUP9 SWAP1 JUMPDEST DUP3 DUP2 LT PUSH2 0x1147 JUMPI POP POP PUSH2 0x101E JUMP JUMPDEST PUSH1 0x0 DUP2 SSTORE ADD DUP9 SWAP1 PUSH2 0x1139 JUMP JUMPDEST SWAP1 SWAP2 POP DUP2 SWAP1 PUSH2 0x112E JUMP JUMPDEST PUSH4 0x4E487B71 PUSH1 0xE0 SHL PUSH1 0x0 MSTORE PUSH1 0x41 PUSH1 0x4 MSTORE PUSH1 0x24 PUSH1 0x0 REVERT JUMPDEST PUSH1 0x40 MLOAD PUSH3 0x461BCD PUSH1 0xE5 SHL DUP2 MSTORE PUSH1 0x4 DUP2 ADD DUP4 SWAP1 MSTORE PUSH1 0x2A PUSH1 0x24 DUP3 ADD MSTORE PUSH32 0x4F72646572547261636B696E673A20496E76616C69642073746174757320666F PUSH1 0x44 DUP3 ADD MSTORE PUSH10 0x7220747261636B696E67 PUSH1 0xB0 SHL PUSH1 0x64 DUP3 ADD MSTORE PUSH1 0x84 SWAP1 REVERT JUMPDEST PUSH1 0x3 SWAP2 POP EQ DUP7 PUSH2 0xFF1 JUMP JUMPDEST PUSH1 0x40 MLOAD PUSH3 0x461BCD PUSH1 0xE5 SHL DUP2 MSTORE PUSH1 0x4 DUP2 ADD DUP4 SWAP1 MSTORE PUSH1 0x2B PUSH1 0x24 DUP3 ADD MSTORE PUSH32 0x4F72646572547261636B696E673A204F6E6C792073656C6C65722063616E2061 PUSH1 0x44 DUP3 ADD MSTORE PUSH11 0x646420747261636B696E67 PUSH1 0xA8 SHL PUSH1 0x64 DUP3 ADD MSTORE PUSH1 0x84 SWAP1 REVERT JUMPDEST PUSH2 0x100 CALLDATASIZE PUSH1 0x3 NOT ADD SLT PUSH2 0x1B3 JUMPI PUSH2 0x1244 PUSH2 0x26C6 JUMP JUMPDEST PUSH1 0x24 CALLDATALOAD PUSH1 0x1 PUSH1 0x1 PUSH1 0x40 SHL SUB DUP2 GT PUSH2 0x1B3 JUMPI PUSH2 0x1263 SWAP1 CALLDATASIZE SWAP1 PUSH1 0x4 ADD PUSH2 0x2725 JUMP JUMPDEST PUSH1 0x44 SWAP1 DUP2 CALLDATALOAD PUSH1 0x1 PUSH1 0x1 PUSH1 0x40 SHL SUB DUP2 GT PUSH2 0x1B3 JUMPI PUSH2 0x1284 SWAP1 CALLDATASIZE SWAP1 PUSH1 0x4 ADD PUSH2 0x2725 JUMP JUMPDEST PUSH1 0x84 SWAP3 DUP4 CALLDATALOAD SWAP2 SWAP1 PUSH1 0x1 PUSH1 0x1 PUSH1 0xA0 SHL SUB DUP4 AND DUP4 SUB PUSH2 0x1B3 JUMPI PUSH1 0xC4 CALLDATALOAD PUSH1 0x1 PUSH1 0x1 PUSH1 0x40 SHL SUB DUP2 GT PUSH2 0x1B3 JUMPI PUSH2 0x12BA SWAP1 CALLDATASIZE SWAP1 PUSH1 0x4 ADD PUSH2 0x2725 JUMP JUMPDEST SWAP5 PUSH1 0xE4 CALLDATALOAD PUSH1 0x1 PUSH1 0x1 PUSH1 0x40 SHL SUB DUP2 GT PUSH2 0x1B3 JUMPI PUSH2 0x12DA SWAP1 CALLDATASIZE SWAP1 PUSH1 0x4 ADD PUSH2 0x2725 JUMP JUMPDEST SWAP2 PUSH1 0x1 PUSH1 0x1 PUSH1 0xA0 SHL SUB DUP9 AND ISZERO PUSH2 0x1F02 JUMPI PUSH1 0x1 PUSH1 0x1 PUSH1 0xA0 SHL SUB DUP9 AND CALLER EQ PUSH2 0x1EB2 JUMPI PUSH1 0x64 CALLDATALOAD ISZERO PUSH2 0x1E5A JUMPI DUP6 MLOAD ISZERO PUSH2 0x1E0D JUMPI DUP7 MLOAD ISZERO PUSH2 0x1DB9 JUMPI PUSH1 0x6 SLOAD CALLVALUE LT PUSH2 0x1D6D JUMPI POP POP PUSH1 0x5 SLOAD CALLVALUE DUP2 CALLVALUE MUL DIV DUP2 EQ CALLVALUE ISZERO OR ISZERO PUSH2 0x1D57 JUMPI PUSH2 0x2710 SWAP1 CALLVALUE MUL DIV PUSH2 0x133E DUP2 CALLVALUE PUSH2 0x28B6 JUMP JUMPDEST POP DUP1 ISZERO DUP1 ISZERO PUSH2 0x1D27 JUMPI JUMPDEST POP POP PUSH2 0x1355 PUSH1 0x0 SLOAD PUSH2 0x28C3 JUMP JUMPDEST SWAP5 DUP6 PUSH1 0x0 SSTORE PUSH2 0x1363 DUP7 PUSH2 0x2E21 JUMP JUMPDEST SWAP5 PUSH2 0x139E PUSH1 0x24 PUSH1 0x40 MLOAD DUP1 SWAP9 PUSH4 0x4F52442D PUSH1 0xE0 SHL PUSH1 0x20 DUP4 ADD MSTORE PUSH2 0x138E DUP2 MLOAD DUP1 SWAP3 PUSH1 0x20 DUP7 DUP7 ADD SWAP2 ADD PUSH2 0x255F JUMP JUMPDEST DUP2 ADD SUB PUSH1 0x4 DUP2 ADD DUP10 MSTORE ADD DUP8 PUSH2 0x2527 JUMP JUMPDEST PUSH1 0x40 MLOAD SWAP4 NUMBER PUSH1 0x20 DUP7 ADD MSTORE TIMESTAMP PUSH1 0x40 DUP7 ADD MSTORE CALLER PUSH1 0x60 SHL PUSH1 0x60 DUP7 ADD MSTORE DUP8 PUSH1 0x74 DUP7 ADD MSTORE PUSH1 0x74 DUP6 MSTORE DUP5 PUSH1 0xA0 DUP2 ADD LT PUSH1 0x1 PUSH1 0x1 PUSH1 0x40 SHL SUB PUSH1 0xA0 DUP8 ADD GT OR PUSH2 0x115D JUMPI PUSH1 0xA0 DUP6 ADD PUSH1 0x40 MSTORE DUP5 MLOAD PUSH1 0x20 DUP7 ADD KECCAK256 SWAP2 PUSH2 0x13F4 PUSH1 0xA0 DUP8 ADD PUSH2 0x250B JUMP JUMPDEST DUP9 PUSH1 0xA0 DUP8 ADD MSTORE DUP8 PUSH1 0xC0 DUP8 ADD MSTORE CALLER PUSH1 0xE0 DUP8 ADD MSTORE PUSH1 0x1 DUP1 PUSH1 0xA0 SHL SUB DUP11 AND PUSH2 0x100 DUP8 ADD MSTORE PUSH2 0x120 DUP7 ADD MSTORE PUSH2 0x140 DUP6 ADD MSTORE PUSH1 0x64 CALLDATALOAD PUSH2 0x160 DUP6 ADD MSTORE CALLVALUE PUSH2 0x180 DUP6 ADD MSTORE PUSH1 0x1 DUP1 PUSH1 0xA0 SHL SUB DUP6 AND PUSH2 0x1A0 DUP6 ADD MSTORE PUSH1 0x0 PUSH2 0x1C0 DUP6 ADD MSTORE TIMESTAMP PUSH2 0x1E0 DUP6 ADD MSTORE TIMESTAMP PUSH2 0x200 DUP6 ADD MSTORE PUSH1 0xA4 CALLDATALOAD PUSH2 0x220 DUP6 ADD MSTORE PUSH1 0x40 MLOAD DUP1 PUSH1 0x20 DUP2 ADD LT PUSH1 0x1 PUSH1 0x1 PUSH1 0x40 SHL SUB PUSH1 0x20 DUP4 ADD GT OR PUSH2 0x115D JUMPI PUSH1 0x20 DUP2 ADD PUSH1 0x40 MSTORE PUSH1 0x0 DUP2 MSTORE PUSH2 0x240 DUP6 ADD MSTORE PUSH2 0x260 DUP5 ADD MSTORE PUSH2 0x280 DUP4 ADD MSTORE PUSH2 0x2A0 DUP3 ADD MSTORE DUP4 PUSH1 0x0 MSTORE PUSH1 0x1 PUSH1 0x20 MSTORE PUSH1 0x40 PUSH1 0x0 KECCAK256 SWAP1 PUSH1 0xA0 DUP2 ADD MLOAD DUP3 SSTORE PUSH1 0xC0 DUP2 ADD MLOAD DUP1 MLOAD SWAP1 PUSH1 0x1 PUSH1 0x1 PUSH1 0x40 SHL SUB DUP3 GT PUSH2 0x115D JUMPI DUP2 SWAP1 PUSH2 0x14D8 PUSH1 0x1 DUP7 ADD SLOAD PUSH2 0x27D6 JUMP JUMPDEST PUSH1 0x1F DUP2 GT PUSH2 0x1CD4 JUMPI JUMPDEST POP PUSH1 0x20 SWAP1 PUSH1 0x1F DUP4 GT PUSH1 0x1 EQ PUSH2 0x1C62 JUMPI PUSH1 0x0 SWAP3 PUSH2 0x1C57 JUMPI JUMPDEST POP POP DUP2 PUSH1 0x1 SHL SWAP2 PUSH1 0x0 NOT SWAP1 PUSH1 0x3 SHL SHR NOT AND OR PUSH1 0x1 DUP4 ADD SSTORE JUMPDEST PUSH1 0xE0 DUP2 ADD MLOAD PUSH1 0x2 DUP4 ADD DUP1 SLOAD PUSH1 0x1 PUSH1 0x1 PUSH1 0xA0 SHL SUB SWAP3 DUP4 AND PUSH1 0x1 PUSH1 0x1 PUSH1 0xA0 SHL SUB NOT SWAP2 DUP3 AND OR SWAP1 SWAP2 SSTORE PUSH2 0x100 DUP4 ADD MLOAD PUSH1 0x3 DUP6 ADD DUP1 SLOAD SWAP2 SWAP1 SWAP4 AND SWAP2 AND OR SWAP1 SSTORE PUSH2 0x120 DUP2 ADD MLOAD DUP1 MLOAD SWAP1 PUSH1 0x1 PUSH1 0x1 PUSH1 0x40 SHL SUB DUP3 GT PUSH2 0x115D JUMPI DUP2 SWAP1 PUSH2 0x1571 PUSH1 0x4 DUP7 ADD SLOAD PUSH2 0x27D6 JUMP JUMPDEST PUSH1 0x1F DUP2 GT PUSH2 0x1C04 JUMPI JUMPDEST POP PUSH1 0x20 SWAP1 PUSH1 0x1F DUP4 GT PUSH1 0x1 EQ PUSH2 0x1B92 JUMPI PUSH1 0x0 SWAP3 PUSH2 0x1B87 JUMPI JUMPDEST POP POP DUP2 PUSH1 0x1 SHL SWAP2 PUSH1 0x0 NOT SWAP1 PUSH1 0x3 SHL SHR NOT AND OR PUSH1 0x4 DUP4 ADD SSTORE JUMPDEST PUSH2 0x140 DUP2 ADD MLOAD DUP1 MLOAD SWAP1 PUSH1 0x1 PUSH1 0x1 PUSH1 0x40 SHL SUB DUP3 GT PUSH2 0x115D JUMPI DUP2 SWAP1 PUSH2 0x15CF PUSH1 0x5 DUP7 ADD SLOAD PUSH2 0x27D6 JUMP JUMPDEST PUSH1 0x1F DUP2 GT PUSH2 0x1B34 JUMPI JUMPDEST POP PUSH1 0x20 SWAP1 PUSH1 0x1F DUP4 GT PUSH1 0x1 EQ PUSH2 0x1AC2 JUMPI PUSH1 0x0 SWAP3 PUSH2 0x1AB7 JUMPI JUMPDEST POP POP DUP2 PUSH1 0x1 SHL SWAP2 PUSH1 0x0 NOT SWAP1 PUSH1 0x3 SHL SHR NOT AND OR PUSH1 0x5 DUP4 ADD SSTORE JUMPDEST PUSH2 0x160 DUP2 ADD MLOAD PUSH1 0x6 DUP4 ADD SSTORE PUSH2 0x180 DUP2 ADD MLOAD PUSH1 0x7 DUP4 ADD SSTORE PUSH1 0x8 DUP3 ADD PUSH1 0x1 DUP1 PUSH1 0xA0 SHL SUB PUSH2 0x1A0 DUP4 ADD MLOAD AND PUSH12 0xFFFFFFFFFFFFFFFFFFFFFFFF PUSH1 0xA0 SHL DUP3 SLOAD AND OR DUP2 SSTORE PUSH2 0x1C0 DUP3 ADD MLOAD PUSH1 0x7 DUP2 LT ISZERO PUSH2 0x4BB JUMPI PUSH2 0x165D SWAP2 PUSH2 0x28DE JUMP JUMPDEST PUSH2 0x1E0 DUP2 ADD MLOAD PUSH1 0x9 DUP4 ADD SSTORE PUSH2 0x200 DUP2 ADD MLOAD PUSH1 0xA DUP4 ADD SSTORE PUSH2 0x220 DUP2 ADD MLOAD PUSH1 0xB DUP4 ADD SSTORE PUSH2 0x240 DUP2 ADD MLOAD DUP1 MLOAD SWAP1 PUSH1 0x1 PUSH1 0x1 PUSH1 0x40 SHL SUB DUP3 GT PUSH2 0x115D JUMPI DUP2 SWAP1 PUSH2 0x16A4 PUSH1 0xC DUP7 ADD SLOAD PUSH2 0x27D6 JUMP JUMPDEST PUSH1 0x1F DUP2 GT PUSH2 0x1A64 JUMPI JUMPDEST POP PUSH1 0x20 SWAP1 PUSH1 0x1F DUP4 GT PUSH1 0x1 EQ PUSH2 0x19F2 JUMPI PUSH1 0x0 SWAP3 PUSH2 0x19E7 JUMPI JUMPDEST POP POP DUP2 PUSH1 0x1 SHL SWAP2 PUSH1 0x0 NOT SWAP1 PUSH1 0x3 SHL SHR NOT AND OR PUSH1 0xC DUP4 ADD SSTORE JUMPDEST PUSH2 0x260 DUP2 ADD MLOAD PUSH1 0xD DUP4 ADD SSTORE PUSH2 0x280 DUP2 ADD MLOAD DUP1 MLOAD SWAP1 PUSH1 0x1 PUSH1 0x1 PUSH1 0x40 SHL SUB DUP3 GT PUSH2 0x115D JUMPI PUSH2 0x170B PUSH1 0xE DUP6 ADD SLOAD PUSH2 0x27D6 JUMP JUMPDEST PUSH1 0x1F DUP2 GT PUSH2 0x19A0 JUMPI JUMPDEST POP PUSH1 0x20 SWAP1 PUSH1 0x1F DUP4 GT PUSH1 0x1 EQ PUSH2 0x192E JUMPI PUSH2 0x2A0 SWAP4 SWAP3 SWAP2 PUSH1 0x0 SWAP2 DUP4 PUSH2 0x1923 JUMPI JUMPDEST POP POP DUP2 PUSH1 0x1 SHL SWAP2 PUSH1 0x0 NOT SWAP1 PUSH1 0x3 SHL SHR NOT AND OR PUSH1 0xE DUP5 ADD SSTORE JUMPDEST ADD MLOAD SWAP1 DUP2 MLOAD PUSH1 0x1 PUSH1 0x1 PUSH1 0x40 SHL SUB DUP2 GT PUSH2 0x115D JUMPI PUSH2 0x176A PUSH1 0xF DUP4 ADD SLOAD PUSH2 0x27D6 JUMP JUMPDEST PUSH1 0x1F DUP2 GT PUSH2 0x18D8 JUMPI JUMPDEST POP SWAP6 DUP6 SWAP2 PUSH1 0x20 SWAP8 DUP9 SWAP5 PUSH1 0x1F DUP3 GT PUSH1 0x1 EQ PUSH2 0x1848 JUMPI SWAP1 DUP1 PUSH32 0xA33D75F744E5E64D7A6FC64776ADAD8F28AAA0E990CA846E42C4C1DEC9EF97BD SWAP6 SWAP7 PUSH1 0xF SWAP4 PUSH1 0x0 SWAP3 PUSH2 0x183D JUMPI JUMPDEST POP POP DUP2 PUSH1 0x1 SHL SWAP2 PUSH1 0x0 NOT SWAP1 PUSH1 0x3 SHL SHR NOT AND OR SWAP2 ADD SSTORE JUMPDEST CALLER PUSH1 0x0 MSTORE PUSH1 0x2 DUP8 MSTORE PUSH2 0x17E3 DUP4 PUSH1 0x40 PUSH1 0x0 KECCAK256 PUSH2 0x2902 JUMP JUMPDEST PUSH1 0x1 DUP1 PUSH1 0xA0 SHL SUB DUP2 AND PUSH1 0x0 MSTORE PUSH1 0x3 DUP8 MSTORE PUSH2 0x1801 DUP4 PUSH1 0x40 PUSH1 0x0 KECCAK256 PUSH2 0x2902 JUMP JUMPDEST PUSH2 0x1816 PUSH1 0x40 MLOAD SWAP6 PUSH1 0x60 DUP8 MSTORE PUSH1 0x60 DUP8 ADD SWAP1 PUSH2 0x2582 JUMP JUMPDEST CALLVALUE DUP7 DUP10 ADD MSTORE PUSH1 0x1 PUSH1 0x1 PUSH1 0xA0 SHL SUB SWAP5 DUP6 AND PUSH1 0x40 DUP8 ADD MSTORE SWAP4 AND SWAP4 CALLER SWAP4 DUP2 SWAP1 SUB SWAP1 LOG4 PUSH1 0x40 MLOAD SWAP1 DUP2 MSTORE RETURN JUMPDEST ADD MLOAD SWAP1 POP DUP12 DUP1 PUSH2 0x17B7 JUMP JUMPDEST PUSH1 0x1F NOT DUP3 AND SWAP1 PUSH1 0xF DUP5 ADD PUSH1 0x0 MSTORE DUP11 PUSH1 0x0 KECCAK256 SWAP2 PUSH1 0x0 JUMPDEST DUP2 DUP2 LT PUSH2 0x18BE JUMPI POP SWAP2 PUSH32 0xA33D75F744E5E64D7A6FC64776ADAD8F28AAA0E990CA846E42C4C1DEC9EF97BD SWAP7 SWAP8 DUP5 SWAP3 PUSH1 0xF SWAP6 PUSH1 0x1 SWAP6 LT PUSH2 0x18A5 JUMPI JUMPDEST POP POP POP DUP2 SHL ADD SWAP2 ADD SSTORE PUSH2 0x17CD JUMP JUMPDEST ADD MLOAD PUSH1 0x0 NOT PUSH1 0xF8 DUP5 PUSH1 0x3 SHL AND SHR NOT AND SWAP1 SSTORE DUP12 DUP1 DUP1 PUSH2 0x1897 JUMP JUMPDEST DUP3 DUP10 ADD MLOAD DUP5 SSTORE SWAP8 DUP13 ADD SWAP8 DUP12 SWAP8 POP PUSH1 0x1 SWAP1 SWAP4 ADD SWAP3 DUP13 ADD PUSH2 0x185D JUMP JUMPDEST PUSH1 0xF DUP4 ADD PUSH1 0x0 MSTORE PUSH1 0x20 PUSH1 0x0 KECCAK256 PUSH1 0x1F DUP4 ADD PUSH1 0x5 SHR DUP2 ADD SWAP2 PUSH1 0x20 DUP5 LT PUSH2 0x1919 JUMPI JUMPDEST PUSH1 0x1F ADD PUSH1 0x5 SHR ADD SWAP1 JUMPDEST DUP2 DUP2 LT PUSH2 0x190D JUMPI POP PUSH2 0x1773 JUMP JUMPDEST PUSH1 0x0 DUP2 SSTORE PUSH1 0x1 ADD PUSH2 0x1900 JUMP JUMPDEST SWAP1 SWAP2 POP DUP2 SWAP1 PUSH2 0x18F7 JUMP JUMPDEST ADD MLOAD SWAP1 POP DUP10 DUP1 PUSH2 0x1732 JUMP JUMPDEST SWAP1 PUSH1 0xE DUP6 ADD PUSH1 0x0 MSTORE PUSH1 0x20 PUSH1 0x0 KECCAK256 SWAP2 PUSH1 0x0 PUSH1 0x1F NOT DUP6 AND SWAP1 JUMPDEST DUP2 DUP2 LT PUSH2 0x1988 JUMPI POP SWAP2 PUSH1 0x1 SWAP4 SWAP2 DUP6 PUSH2 0x2A0 SWAP8 SWAP7 SWAP5 LT PUSH2 0x196F JUMPI JUMPDEST POP POP POP DUP2 SHL ADD PUSH1 0xE DUP5 ADD SSTORE PUSH2 0x174A JUMP JUMPDEST ADD MLOAD PUSH1 0x0 NOT PUSH1 0xF8 DUP5 PUSH1 0x3 SHL AND SHR NOT AND SWAP1 SSTORE DUP10 DUP1 DUP1 PUSH2 0x195F JUMP JUMPDEST SWAP3 SWAP4 PUSH1 0x20 PUSH1 0x1 DUP2 SWAP3 DUP8 DUP7 ADD MLOAD DUP2 SSTORE ADD SWAP6 ADD SWAP4 ADD PUSH2 0x1945 JUMP JUMPDEST PUSH1 0xE DUP6 ADD PUSH1 0x0 MSTORE PUSH1 0x20 PUSH1 0x0 KECCAK256 PUSH1 0x1F DUP5 ADD PUSH1 0x5 SHR DUP2 ADD PUSH1 0x20 DUP6 LT PUSH2 0x19E0 JUMPI JUMPDEST PUSH1 0x1F DUP4 ADD PUSH1 0x5 SHR DUP3 ADD DUP2 LT PUSH2 0x19D4 JUMPI POP POP PUSH2 0x1714 JUMP JUMPDEST PUSH1 0x0 DUP2 SSTORE PUSH1 0x1 ADD PUSH2 0x19BE JUMP JUMPDEST POP DUP1 PUSH2 0x19BE JUMP JUMPDEST ADD MLOAD SWAP1 POP DUP9 DUP1 PUSH2 0x16C4 JUMP JUMPDEST SWAP3 POP PUSH1 0xC DUP6 ADD PUSH1 0x0 MSTORE PUSH1 0x20 PUSH1 0x0 KECCAK256 SWAP1 PUSH1 0x0 SWAP4 JUMPDEST PUSH1 0x1F NOT DUP5 AND DUP6 LT PUSH2 0x1A49 JUMPI PUSH1 0x1 SWAP5 POP DUP4 PUSH1 0x1F NOT DUP2 AND LT PUSH2 0x1A30 JUMPI JUMPDEST POP POP POP DUP2 SHL ADD PUSH1 0xC DUP4 ADD SSTORE PUSH2 0x16DC JUMP JUMPDEST ADD MLOAD PUSH1 0x0 NOT PUSH1 0xF8 DUP5 PUSH1 0x3 SHL AND SHR NOT AND SWAP1 SSTORE DUP9 DUP1 DUP1 PUSH2 0x1A20 JUMP JUMPDEST DUP2 DUP2 ADD MLOAD DUP4 SSTORE PUSH1 0x20 SWAP5 DUP6 ADD SWAP5 PUSH1 0x1 SWAP1 SWAP4 ADD SWAP3 SWAP1 SWAP2 ADD SWAP1 PUSH2 0x1A05 JUMP JUMPDEST SWAP1 SWAP2 POP PUSH1 0xC DUP6 ADD PUSH1 0x0 MSTORE PUSH1 0x20 PUSH1 0x0 KECCAK256 PUSH1 0x1F DUP5 ADD PUSH1 0x5 SHR DUP2 ADD PUSH1 0x20 DUP6 LT PUSH2 0x1AB0 JUMPI JUMPDEST SWAP1 DUP5 SWAP4 SWAP3 SWAP2 JUMPDEST PUSH1 0x1F DUP4 ADD PUSH1 0x5 SHR DUP3 ADD DUP2 LT PUSH2 0x1AA1 JUMPI POP POP PUSH2 0x16AD JUMP JUMPDEST PUSH1 0x0 DUP2 SSTORE DUP6 SWAP5 POP PUSH1 0x1 ADD PUSH2 0x1A8B JUMP JUMPDEST POP DUP1 PUSH2 0x1A85 JUMP JUMPDEST ADD MLOAD SWAP1 POP DUP9 DUP1 PUSH2 0x15EF JUMP JUMPDEST SWAP3 POP PUSH1 0x5 DUP6 ADD PUSH1 0x0 MSTORE PUSH1 0x20 PUSH1 0x0 KECCAK256 SWAP1 PUSH1 0x0 SWAP4 JUMPDEST PUSH1 0x1F NOT DUP5 AND DUP6 LT PUSH2 0x1B19 JUMPI PUSH1 0x1 SWAP5 POP DUP4 PUSH1 0x1F NOT DUP2 AND LT PUSH2 0x1B00 JUMPI JUMPDEST POP POP POP DUP2 SHL ADD PUSH1 0x5 DUP4 ADD SSTORE PUSH2 0x1607 JUMP JUMPDEST ADD MLOAD PUSH1 0x0 NOT PUSH1 0xF8 DUP5 PUSH1 0x3 SHL AND SHR NOT AND SWAP1 SSTORE DUP9 DUP1 DUP1 PUSH2 0x1AF0 JUMP JUMPDEST DUP2 DUP2 ADD MLOAD DUP4 SSTORE PUSH1 0x20 SWAP5 DUP6 ADD SWAP5 PUSH1 0x1 SWAP1 SWAP4 ADD SWAP3 SWAP1 SWAP2 ADD SWAP1 PUSH2 0x1AD5 JUMP JUMPDEST SWAP1 SWAP2 POP PUSH1 0x5 DUP6 ADD PUSH1 0x0 MSTORE PUSH1 0x20 PUSH1 0x0 KECCAK256 PUSH1 0x1F DUP5 ADD PUSH1 0x5 SHR DUP2 ADD PUSH1 0x20 DUP6 LT PUSH2 0x1B80 JUMPI JUMPDEST SWAP1 DUP5 SWAP4 SWAP3 SWAP2 JUMPDEST PUSH1 0x1F DUP4 ADD PUSH1 0x5 SHR DUP3 ADD DUP2 LT PUSH2 0x1B71 JUMPI POP POP PUSH2 0x15D8 JUMP JUMPDEST PUSH1 0x0 DUP2 SSTORE DUP6 SWAP5 POP PUSH1 0x1 ADD PUSH2 0x1B5B JUMP JUMPDEST POP DUP1 PUSH2 0x1B55 JUMP JUMPDEST ADD MLOAD SWAP1 POP DUP9 DUP1 PUSH2 0x1591 JUMP JUMPDEST SWAP3 POP PUSH1 0x4 DUP6 ADD PUSH1 0x0 MSTORE PUSH1 0x20 PUSH1 0x0 KECCAK256 SWAP1 PUSH1 0x0 SWAP4 JUMPDEST PUSH1 0x1F NOT DUP5 AND DUP6 LT PUSH2 0x1BE9 JUMPI PUSH1 0x1 SWAP5 POP DUP4 PUSH1 0x1F NOT DUP2 AND LT PUSH2 0x1BD0 JUMPI JUMPDEST POP POP POP DUP2 SHL ADD PUSH1 0x4 DUP4 ADD SSTORE PUSH2 0x15A9 JUMP JUMPDEST ADD MLOAD PUSH1 0x0 NOT PUSH1 0xF8 DUP5 PUSH1 0x3 SHL AND SHR NOT AND SWAP1 SSTORE DUP9 DUP1 DUP1 PUSH2 0x1BC0 JUMP JUMPDEST DUP2 DUP2 ADD MLOAD DUP4 SSTORE PUSH1 0x20 SWAP5 DUP6 ADD SWAP5 PUSH1 0x1 SWAP1 SWAP4 ADD SWAP3 SWAP1 SWAP2 ADD SWAP1 PUSH2 0x1BA5 JUMP JUMPDEST SWAP1 SWAP2 POP PUSH1 0x4 DUP6 ADD PUSH1 0x0 MSTORE PUSH1 0x20 PUSH1 0x0 KECCAK256 PUSH1 0x1F DUP5 ADD PUSH1 0x5 SHR DUP2 ADD PUSH1 0x20 DUP6 LT PUSH2 0x1C50 JUMPI JUMPDEST SWAP1 DUP5 SWAP4 SWAP3 SWAP2 JUMPDEST PUSH1 0x1F DUP4 ADD PUSH1 0x5 SHR DUP3 ADD DUP2 LT PUSH2 0x1C41 JUMPI POP POP PUSH2 0x157A JUMP JUMPDEST PUSH1 0x0 DUP2 SSTORE DUP6 SWAP5 POP PUSH1 0x1 ADD PUSH2 0x1C2B JUMP JUMPDEST POP DUP1 PUSH2 0x1C25 JUMP JUMPDEST ADD MLOAD SWAP1 POP DUP9 DUP1 PUSH2 0x14F8 JUMP JUMPDEST SWAP3 POP PUSH1 0x1 DUP6 ADD PUSH1 0x0 MSTORE PUSH1 0x20 PUSH1 0x0 KECCAK256 SWAP1 PUSH1 0x0 SWAP4 JUMPDEST PUSH1 0x1F NOT DUP5 AND DUP6 LT PUSH2 0x1CB9 JUMPI PUSH1 0x1 SWAP5 POP DUP4 PUSH1 0x1F NOT DUP2 AND LT PUSH2 0x1CA0 JUMPI JUMPDEST POP POP POP DUP2 SHL ADD PUSH1 0x1 DUP4 ADD SSTORE PUSH2 0x1510 JUMP JUMPDEST ADD MLOAD PUSH1 0x0 NOT PUSH1 0xF8 DUP5 PUSH1 0x3 SHL AND SHR NOT AND SWAP1 SSTORE DUP9 DUP1 DUP1 PUSH2 0x1C90 JUMP JUMPDEST DUP2 DUP2 ADD MLOAD DUP4 SSTORE PUSH1 0x20 SWAP5 DUP6 ADD SWAP5 PUSH1 0x1 SWAP1 SWAP4 ADD SWAP3 SWAP1 SWAP2 ADD SWAP1 PUSH2 0x1C75 JUMP JUMPDEST SWAP1 SWAP2 POP PUSH1 0x1 DUP6 ADD PUSH1 0x0 MSTORE PUSH1 0x20 PUSH1 0x0 KECCAK256 PUSH1 0x1F DUP5 ADD PUSH1 0x5 SHR DUP2 ADD PUSH1 0x20 DUP6 LT PUSH2 0x1D20 JUMPI JUMPDEST SWAP1 DUP5 SWAP4 SWAP3 SWAP2 JUMPDEST PUSH1 0x1F DUP4 ADD PUSH1 0x5 SHR DUP3 ADD DUP2 LT PUSH2 0x1D11 JUMPI POP POP PUSH2 0x14E1 JUMP JUMPDEST PUSH1 0x0 DUP2 SSTORE DUP6 SWAP5 POP PUSH1 0x1 ADD PUSH2 0x1CFB JUMP JUMPDEST POP DUP1 PUSH2 0x1CF5 JUMP JUMPDEST PUSH1 0x0 DUP1 DUP1 SWAP4 DUP2 SWAP4 PUSH1 0x1 DUP1 PUSH1 0xA0 SHL SUB PUSH1 0x4 SLOAD AND SWAP1 DUP4 SWAP1 PUSH2 0x1D4E JUMPI JUMPDEST CALL ISZERO PUSH2 0xB26 JUMPI DUP7 DUP1 PUSH2 0x1348 JUMP JUMPDEST POP PUSH2 0x8FC PUSH2 0x1D41 JUMP JUMPDEST PUSH4 0x4E487B71 PUSH1 0xE0 SHL PUSH1 0x0 MSTORE PUSH1 0x11 PUSH1 0x4 MSTORE PUSH1 0x24 PUSH1 0x0 REVERT JUMPDEST PUSH32 0x4F72646572547261636B696E673A204F726465722076616C756520746F6F206C PUSH1 0x40 MLOAD SWAP2 PUSH3 0x461BCD PUSH1 0xE5 SHL DUP4 MSTORE PUSH1 0x20 PUSH1 0x4 DUP5 ADD MSTORE PUSH1 0x22 PUSH1 0x24 DUP5 ADD MSTORE DUP3 ADD MSTORE PUSH2 0x6F77 PUSH1 0xF0 SHL PUSH1 0x64 DUP3 ADD MSTORE REVERT JUMPDEST PUSH32 0x4F72646572547261636B696E673A204E6574776F726B206964656E7469666965 PUSH1 0x40 MLOAD SWAP2 PUSH3 0x461BCD PUSH1 0xE5 SHL DUP4 MSTORE PUSH1 0x20 PUSH1 0x4 DUP5 ADD MSTORE PUSH1 0x2A PUSH1 0x24 DUP5 ADD MSTORE DUP3 ADD MSTORE PUSH10 0x1C881C995C5D5A5C9959 PUSH1 0xB2 SHL PUSH1 0x64 DUP3 ADD MSTORE REVERT JUMPDEST PUSH32 0x4F72646572547261636B696E673A2050726F64756374206E616D652072657175 PUSH1 0x40 MLOAD SWAP2 PUSH3 0x461BCD PUSH1 0xE5 SHL DUP4 MSTORE PUSH1 0x20 PUSH1 0x4 DUP5 ADD MSTORE PUSH1 0x24 DUP1 DUP5 ADD MSTORE DUP3 ADD MSTORE PUSH4 0x1A5C9959 PUSH1 0xE2 SHL PUSH1 0x64 DUP3 ADD MSTORE REVERT JUMPDEST PUSH32 0x4F72646572547261636B696E673A205175616E74697479206D75737420626520 PUSH1 0x40 MLOAD SWAP2 PUSH3 0x461BCD PUSH1 0xE5 SHL DUP4 MSTORE PUSH1 0x20 PUSH1 0x4 DUP5 ADD MSTORE PUSH1 0x2E PUSH1 0x24 DUP5 ADD MSTORE DUP3 ADD MSTORE PUSH14 0x67726561746572207468616E203 PUSH1 0x94 SHL PUSH1 0x64 DUP3 ADD MSTORE REVERT JUMPDEST PUSH32 0x4F72646572547261636B696E673A2043616E6E6F742073656C6C20746F20796F PUSH1 0x40 MLOAD SWAP2 PUSH3 0x461BCD PUSH1 0xE5 SHL DUP4 MSTORE PUSH1 0x20 PUSH1 0x4 DUP5 ADD MSTORE PUSH1 0x26 PUSH1 0x24 DUP5 ADD MSTORE DUP3 ADD MSTORE PUSH6 0x3AB939B2B633 PUSH1 0xD1 SHL PUSH1 0x64 DUP3 ADD MSTORE REVERT JUMPDEST PUSH32 0x4F72646572547261636B696E673A20496E76616C69642073656C6C6572206164 PUSH1 0x40 MLOAD SWAP2 PUSH3 0x461BCD PUSH1 0xE5 SHL DUP4 MSTORE PUSH1 0x20 PUSH1 0x4 DUP5 ADD MSTORE PUSH1 0x25 PUSH1 0x24 DUP5 ADD MSTORE DUP3 ADD MSTORE PUSH5 0x6472657373 PUSH1 0xD8 SHL PUSH1 0x64 DUP3 ADD MSTORE REVERT JUMPDEST CALLVALUE PUSH2 0x1B3 JUMPI PUSH2 0x1F5F CALLDATASIZE PUSH2 0x276C JUMP JUMPDEST DUP2 PUSH1 0x0 MSTORE PUSH1 0x20 PUSH1 0x1 DUP2 MSTORE PUSH2 0x1F79 PUSH1 0x40 PUSH1 0x0 KECCAK256 SLOAD ISZERO ISZERO PUSH2 0x293C JUMP JUMPDEST DUP3 PUSH1 0x0 MSTORE PUSH1 0x1 DUP2 MSTORE PUSH2 0x1F95 PUSH1 0x40 PUSH1 0x0 KECCAK256 PUSH1 0x40 MLOAD PUSH2 0x635 DUP2 PUSH2 0x250B JUMP JUMPDEST DUP3 PUSH1 0x0 MSTORE PUSH1 0x1 DUP2 MSTORE PUSH1 0x40 PUSH1 0x0 KECCAK256 SWAP2 PUSH1 0x8 DUP4 ADD SWAP3 DUP4 SLOAD SWAP4 PUSH1 0xFF DUP6 PUSH1 0xA0 SHR AND SWAP5 PUSH1 0x7 DUP7 LT ISZERO DUP1 PUSH2 0x4BB JUMPI PUSH1 0x4 DUP8 EQ ISZERO SWAP1 DUP2 PUSH2 0x20B5 JUMPI JUMPDEST DUP2 PUSH2 0x20A4 JUMPI JUMPDEST POP ISZERO PUSH2 0x204E JUMPI PUSH1 0xFF PUSH1 0xA0 SHL NOT AND PUSH1 0x3 PUSH1 0xA1 SHL OR SWAP1 SSTORE TIMESTAMP PUSH1 0xA SWAP1 SWAP2 ADD SSTORE PUSH1 0x40 MLOAD DUP3 DUP2 MSTORE PUSH1 0x0 DUP1 MLOAD PUSH1 0x20 PUSH2 0x2F10 DUP4 CODECOPY DUP2 MLOAD SWAP2 MSTORE SWAP4 PUSH1 0x60 SWAP4 SWAP1 SWAP3 PUSH1 0x6 SWAP3 CALLER SWAP2 DUP9 SWAP2 PUSH32 0x4646ED0D1F2CAEE2A195A8F3D319F69E4EC38380A230313609833977654C2F1F SWAP2 DUP2 SWAP1 PUSH2 0x203E SWAP1 DUP3 DUP9 ADD SWAP1 PUSH2 0x2582 JUMP JUMPDEST SUB SWAP1 LOG3 PUSH2 0x453 PUSH1 0x40 MLOAD DUP1 SWAP5 PUSH2 0x25A7 JUMP JUMPDEST PUSH1 0x40 MLOAD PUSH3 0x461BCD PUSH1 0xE5 SHL DUP2 MSTORE PUSH1 0x4 DUP2 ADD DUP7 SWAP1 MSTORE PUSH1 0x28 PUSH1 0x24 DUP3 ADD MSTORE PUSH32 0x4F72646572547261636B696E673A2043616E6E6F742064697370757465207468 PUSH1 0x44 DUP3 ADD MSTORE PUSH8 0x34B99037B93232B9 PUSH1 0xC1 SHL PUSH1 0x64 DUP3 ADD MSTORE PUSH1 0x84 SWAP1 REVERT JUMPDEST SWAP1 POP PUSH2 0x4BB JUMPI PUSH1 0x6 DUP7 EQ ISZERO DUP9 PUSH2 0x1FCF JUMP JUMPDEST POP POP PUSH1 0x5 DUP7 EQ ISZERO PUSH1 0x0 PUSH2 0x1FC9 JUMP JUMPDEST CALLVALUE PUSH2 0x1B3 JUMPI PUSH1 0x40 CALLDATASIZE PUSH1 0x3 NOT ADD SLT PUSH2 0x1B3 JUMPI PUSH2 0x20DC PUSH2 0x26C6 JUMP JUMPDEST PUSH1 0x1 PUSH1 0x1 PUSH1 0xA0 SHL SUB AND PUSH1 0x0 SWAP1 DUP2 MSTORE PUSH1 0x3 PUSH1 0x20 MSTORE PUSH1 0x40 SWAP1 KECCAK256 DUP1 SLOAD PUSH1 0x24 CALLDATALOAD SWAP2 SWAP1 DUP3 LT ISZERO PUSH2 0x1B3 JUMPI PUSH1 0x20 SWAP2 PUSH2 0x210D SWAP2 PUSH2 0x26DC JUMP JUMPDEST SWAP1 SLOAD SWAP1 PUSH1 0x3 SHL SHR PUSH1 0x40 MLOAD SWAP1 DUP2 MSTORE RETURN JUMPDEST CALLVALUE PUSH2 0x1B3 JUMPI PUSH1 0x40 CALLDATASIZE PUSH1 0x3 NOT ADD SLT PUSH2 0x1B3 JUMPI PUSH2 0x2135 PUSH2 0x26C6 JUMP JUMPDEST PUSH1 0x1 PUSH1 0x1 PUSH1 0xA0 SHL SUB AND PUSH1 0x0 SWAP1 DUP2 MSTORE PUSH1 0x2 PUSH1 0x20 MSTORE PUSH1 0x40 SWAP1 KECCAK256 DUP1 SLOAD PUSH1 0x24 CALLDATALOAD SWAP2 SWAP1 DUP3 LT ISZERO PUSH2 0x1B3 JUMPI PUSH1 0x20 SWAP2 PUSH2 0x2166 SWAP2 PUSH2 0x26DC JUMP JUMPDEST SWAP1 SLOAD PUSH1 0x40 MLOAD SWAP2 PUSH1 0x3 SHL SHR DUP2 MSTORE RETURN JUMPDEST CALLVALUE PUSH2 0x1B3 JUMPI PUSH1 0x0 CALLDATASIZE PUSH1 0x3 NOT ADD SLT PUSH2 0x1B3 JUMPI PUSH1 0x20 PUSH1 0x5 SLOAD PUSH1 0x40 MLOAD SWAP1 DUP2 MSTORE RETURN JUMPDEST CALLVALUE PUSH2 0x1B3 JUMPI PUSH1 0x20 CALLDATASIZE PUSH1 0x3 NOT ADD SLT PUSH2 0x1B3 JUMPI PUSH32 0xBB4B94B1CCC8C491F90026589F1AE72BA682BF84E2BFB407B549F72D2B0FDB69 PUSH1 0x40 PUSH1 0x4 CALLDATALOAD PUSH2 0x21DE PUSH1 0x1 DUP1 PUSH1 0xA0 SHL SUB PUSH1 0x4 SLOAD AND CALLER EQ PUSH2 0x2ACA JUMP JUMPDEST PUSH1 0x6 SLOAD SWAP1 DUP1 PUSH1 0x6 SSTORE DUP3 MLOAD SWAP2 DUP3 MSTORE PUSH1 0x20 DUP3 ADD MSTORE LOG1 STOP JUMPDEST CALLVALUE PUSH2 0x1B3 JUMPI PUSH1 0x0 CALLDATASIZE PUSH1 0x3 NOT ADD SLT PUSH2 0x1B3 JUMPI PUSH1 0x20 PUSH1 0x0 SLOAD PUSH1 0x40 MLOAD SWAP1 DUP2 MSTORE RETURN JUMPDEST CALLVALUE PUSH2 0x1B3 JUMPI PUSH1 0x20 CALLDATASIZE PUSH1 0x3 NOT ADD SLT PUSH2 0x1B3 JUMPI PUSH1 0x4 CALLDATALOAD PUSH2 0x223A PUSH1 0x1 DUP1 PUSH1 0xA0 SHL SUB PUSH1 0x4 SLOAD AND CALLER EQ PUSH2 0x2ACA JUMP JUMPDEST PUSH2 0x3E8 DUP2 GT PUSH2 0x227C JUMPI PUSH1 0x40 PUSH32 0xD347E206F25A89B917FC9482F1A2D294D749BAA4DC9BDE7FB495EE11FE491643 SWAP2 PUSH1 0x5 SLOAD SWAP1 DUP1 PUSH1 0x5 SSTORE DUP3 MLOAD SWAP2 DUP3 MSTORE PUSH1 0x20 DUP3 ADD MSTORE LOG1 STOP JUMPDEST PUSH1 0x40 MLOAD PUSH3 0x461BCD PUSH1 0xE5 SHL DUP2 MSTORE PUSH1 0x20 PUSH1 0x4 DUP3 ADD MSTORE PUSH1 0x25 PUSH1 0x24 DUP3 ADD MSTORE PUSH32 0x4F72646572547261636B696E673A2046656520746F6F206869676820286D6178 PUSH1 0x44 DUP3 ADD MSTORE PUSH5 0x2031302529 PUSH1 0xD8 SHL PUSH1 0x64 DUP3 ADD MSTORE PUSH1 0x84 SWAP1 REVERT JUMPDEST CALLVALUE PUSH2 0x1B3 JUMPI PUSH1 0x20 DUP1 PUSH1 0x3 NOT CALLDATASIZE ADD SLT PUSH2 0x1B3 JUMPI PUSH1 0x4 CALLDATALOAD PUSH1 0x1 PUSH1 0x1 PUSH1 0x40 SHL SUB DUP2 GT PUSH2 0x1B3 JUMPI CALLDATASIZE PUSH1 0x23 DUP3 ADD SLT ISZERO PUSH2 0x1B3 JUMPI DUP1 PUSH1 0x4 ADD CALLDATALOAD SWAP2 PUSH2 0x230C DUP4 PUSH2 0x2548 JUMP JUMPDEST SWAP2 PUSH2 0x231A PUSH1 0x40 MLOAD SWAP4 DUP5 PUSH2 0x2527 JUMP JUMPDEST DUP4 DUP4 MSTORE DUP2 DUP4 ADD PUSH1 0x24 PUSH1 0x5 SWAP6 DUP7 SHL DUP4 ADD ADD SWAP2 CALLDATASIZE DUP4 GT PUSH2 0x1B3 JUMPI PUSH1 0x24 DUP5 SWAP2 ADD SWAP2 JUMPDEST DUP4 DUP4 LT PUSH2 0x24FB JUMPI POP POP POP POP DUP2 MLOAD PUSH2 0x234F DUP2 PUSH2 0x2548 JUMP JUMPDEST SWAP1 PUSH2 0x235D PUSH1 0x40 MLOAD SWAP3 DUP4 PUSH2 0x2527 JUMP JUMPDEST DUP1 DUP3 MSTORE PUSH2 0x236C PUSH1 0x1F NOT SWAP2 PUSH2 0x2548 JUMP JUMPDEST ADD DUP3 PUSH1 0x0 JUMPDEST DUP3 DUP2 LT PUSH2 0x24E5 JUMPI POP POP POP PUSH1 0x0 JUMPDEST DUP4 MLOAD DUP2 LT ISZERO PUSH2 0x2489 JUMPI DUP1 PUSH2 0x2395 PUSH2 0x23AF SWAP3 DUP7 PUSH2 0x2AB6 JUMP JUMPDEST MLOAD PUSH1 0x0 MSTORE PUSH1 0x1 DUP1 DUP6 MSTORE PUSH1 0x40 PUSH1 0x0 KECCAK256 SLOAD PUSH2 0x23B4 JUMPI JUMPDEST POP PUSH2 0x28C3 JUMP JUMPDEST PUSH2 0x237E JUMP JUMPDEST PUSH2 0x23BE DUP3 DUP8 PUSH2 0x2AB6 JUMP JUMPDEST MLOAD PUSH1 0x0 MSTORE DUP1 DUP6 MSTORE PUSH2 0x2467 PUSH1 0xF PUSH1 0x40 PUSH1 0x0 KECCAK256 PUSH2 0x23EA PUSH1 0x40 MLOAD SWAP5 PUSH2 0x23DF DUP7 PUSH2 0x250B JUMP JUMPDEST DUP3 SLOAD DUP7 MSTORE DUP3 ADD PUSH2 0x2810 JUMP JUMPDEST DUP5 DUP10 ADD MSTORE PUSH1 0x2 DUP2 ADD SLOAD PUSH1 0x1 PUSH1 0x1 PUSH1 0xA0 SHL SUB SWAP1 DUP2 AND PUSH1 0x40 DUP7 ADD MSTORE PUSH1 0x3 DUP3 ADD SLOAD DUP2 AND PUSH1 0x60 DUP7 ADD MSTORE PUSH2 0x90B SWAP1 PUSH1 0xFF SWAP1 PUSH2 0x2422 PUSH1 0x4 DUP6 ADD PUSH2 0x2810 JUMP JUMPDEST PUSH1 0x80 DUP9 ADD MSTORE PUSH2 0x2432 DUP14 DUP6 ADD PUSH2 0x2810 JUMP JUMPDEST PUSH1 0xA0 SWAP1 DUP2 DUP10 ADD MSTORE PUSH1 0x6 DUP6 ADD SLOAD PUSH1 0xC0 DUP10 ADD MSTORE PUSH1 0x7 DUP6 ADD SLOAD PUSH1 0xE0 DUP10 ADD MSTORE PUSH1 0x8 DUP6 ADD SLOAD SWAP2 DUP3 AND PUSH2 0x100 DUP10 ADD MSTORE SHR AND PUSH2 0x120 DUP7 ADD PUSH2 0x28D2 JUMP JUMPDEST PUSH2 0x200 DUP3 ADD MSTORE PUSH2 0x2477 DUP3 DUP6 PUSH2 0x2AB6 JUMP JUMPDEST MSTORE PUSH2 0x2482 DUP2 DUP5 PUSH2 0x2AB6 JUMP JUMPDEST POP DUP7 PUSH2 0x23A9 JUMP JUMPDEST PUSH1 0x40 DUP1 MLOAD DUP5 DUP2 MSTORE DUP4 MLOAD DUP2 DUP7 ADD DUP2 SWAP1 MSTORE PUSH1 0x0 SWAP3 DUP2 DUP10 SHL DUP4 ADD DUP2 ADD SWAP2 DUP7 DUP9 ADD SWAP2 DUP9 SWAP1 DUP6 ADD JUMPDEST DUP3 DUP8 LT PUSH2 0x24B9 JUMPI DUP6 DUP6 SUB DUP7 RETURN JUMPDEST SWAP1 SWAP2 SWAP3 SWAP4 DUP3 DUP1 PUSH2 0x24D5 PUSH1 0x1 SWAP4 PUSH1 0x3F NOT DUP11 DUP3 SUB ADD DUP7 MSTORE DUP9 MLOAD PUSH2 0x25B4 JUMP JUMPDEST SWAP7 ADD SWAP3 ADD SWAP7 ADD SWAP6 SWAP3 SWAP2 SWAP1 SWAP3 PUSH2 0x24AC JUMP JUMPDEST PUSH2 0x24ED PUSH2 0x2A38 JUMP JUMPDEST DUP3 DUP3 DUP7 ADD ADD MSTORE ADD DUP4 SWAP1 PUSH2 0x2371 JUMP JUMPDEST DUP3 CALLDATALOAD DUP2 MSTORE SWAP2 DUP2 ADD SWAP2 DUP5 SWAP2 ADD PUSH2 0x2339 JUMP JUMPDEST PUSH2 0x220 DUP2 ADD SWAP1 DUP2 LT PUSH1 0x1 PUSH1 0x1 PUSH1 0x40 SHL SUB DUP3 GT OR PUSH2 0x115D JUMPI PUSH1 0x40 MSTORE JUMP JUMPDEST SWAP1 PUSH1 0x1F DUP1 NOT SWAP2 ADD AND DUP2 ADD SWAP1 DUP2 LT PUSH1 0x1 PUSH1 0x1 PUSH1 0x40 SHL SUB DUP3 GT OR PUSH2 0x115D JUMPI PUSH1 0x40 MSTORE JUMP JUMPDEST PUSH1 0x1 PUSH1 0x1 PUSH1 0x40 SHL SUB DUP2 GT PUSH2 0x115D JUMPI PUSH1 0x5 SHL PUSH1 0x20 ADD SWAP1 JUMP JUMPDEST PUSH1 0x0 JUMPDEST DUP4 DUP2 LT PUSH2 0x2572 JUMPI POP POP PUSH1 0x0 SWAP2 ADD MSTORE JUMP JUMPDEST DUP2 DUP2 ADD MLOAD DUP4 DUP3 ADD MSTORE PUSH1 0x20 ADD PUSH2 0x2562 JUMP JUMPDEST SWAP1 PUSH1 0x20 SWAP2 PUSH2 0x259B DUP2 MLOAD DUP1 SWAP3 DUP2 DUP6 MSTORE DUP6 DUP1 DUP7 ADD SWAP2 ADD PUSH2 0x255F JUMP JUMPDEST PUSH1 0x1F ADD PUSH1 0x1F NOT AND ADD ADD SWAP1 JUMP JUMPDEST SWAP1 PUSH1 0x7 DUP3 LT ISZERO PUSH2 0x4BB JUMPI MSTORE JUMP JUMPDEST SWAP1 PUSH2 0x26C3 SWAP2 DUP1 MLOAD DUP3 MSTORE PUSH2 0x26AF PUSH2 0x2690 PUSH2 0x25DC PUSH1 0x20 DUP5 ADD MLOAD PUSH2 0x220 DUP1 PUSH1 0x20 DUP9 ADD MSTORE DUP7 ADD SWAP1 PUSH2 0x2582 JUMP JUMPDEST PUSH2 0x2626 PUSH2 0x2614 PUSH1 0x1 DUP1 PUSH1 0xA0 SHL SUB SWAP3 DUP4 PUSH1 0x40 DUP9 ADD MLOAD AND PUSH1 0x40 DUP10 ADD MSTORE DUP4 PUSH1 0x60 DUP9 ADD MLOAD AND PUSH1 0x60 DUP10 ADD MSTORE PUSH1 0x80 DUP8 ADD MLOAD DUP9 DUP3 SUB PUSH1 0x80 DUP11 ADD MSTORE PUSH2 0x2582 JUMP JUMPDEST PUSH1 0xA0 DUP7 ADD MLOAD DUP8 DUP3 SUB PUSH1 0xA0 DUP10 ADD MSTORE PUSH2 0x2582 JUMP JUMPDEST SWAP1 PUSH1 0xC0 DUP6 ADD MLOAD PUSH1 0xC0 DUP8 ADD MSTORE PUSH1 0xE0 DUP6 ADD MLOAD PUSH1 0xE0 DUP8 ADD MSTORE PUSH2 0x100 SWAP1 DUP2 DUP7 ADD MLOAD AND SWAP1 DUP7 ADD MSTORE PUSH2 0x265B PUSH2 0x120 DUP1 DUP7 ADD MLOAD SWAP1 DUP8 ADD SWAP1 PUSH2 0x25A7 JUMP JUMPDEST PUSH2 0x140 DUP1 DUP6 ADD MLOAD SWAP1 DUP7 ADD MSTORE PUSH2 0x160 DUP1 DUP6 ADD MLOAD SWAP1 DUP7 ADD MSTORE PUSH2 0x180 DUP1 DUP6 ADD MLOAD SWAP1 DUP7 ADD MSTORE PUSH2 0x1A0 DUP1 DUP6 ADD MLOAD SWAP1 DUP7 DUP4 SUB SWAP1 DUP8 ADD MSTORE PUSH2 0x2582 JUMP JUMPDEST PUSH2 0x1C0 DUP1 DUP5 ADD MLOAD SWAP1 DUP6 ADD MSTORE PUSH2 0x1E0 DUP1 DUP5 ADD MLOAD SWAP1 DUP6 DUP4 SUB SWAP1 DUP7 ADD MSTORE PUSH2 0x2582 JUMP JUMPDEST SWAP2 PUSH2 0x200 DUP1 SWAP3 ADD MLOAD SWAP2 DUP2 DUP5 SUB SWAP2 ADD MSTORE PUSH2 0x2582 JUMP JUMPDEST SWAP1 JUMP JUMPDEST PUSH1 0x4 CALLDATALOAD SWAP1 PUSH1 0x1 PUSH1 0x1 PUSH1 0xA0 SHL SUB DUP3 AND DUP3 SUB PUSH2 0x1B3 JUMPI JUMP JUMPDEST DUP1 SLOAD DUP3 LT ISZERO PUSH2 0x26F4 JUMPI PUSH1 0x0 MSTORE PUSH1 0x20 PUSH1 0x0 KECCAK256 ADD SWAP1 PUSH1 0x0 SWAP1 JUMP JUMPDEST PUSH4 0x4E487B71 PUSH1 0xE0 SHL PUSH1 0x0 MSTORE PUSH1 0x32 PUSH1 0x4 MSTORE PUSH1 0x24 PUSH1 0x0 REVERT JUMPDEST PUSH1 0x1 PUSH1 0x1 PUSH1 0x40 SHL SUB DUP2 GT PUSH2 0x115D JUMPI PUSH1 0x1F ADD PUSH1 0x1F NOT AND PUSH1 0x20 ADD SWAP1 JUMP JUMPDEST DUP2 PUSH1 0x1F DUP3 ADD SLT ISZERO PUSH2 0x1B3 JUMPI DUP1 CALLDATALOAD SWAP1 PUSH2 0x273C DUP3 PUSH2 0x270A JUMP JUMPDEST SWAP3 PUSH2 0x274A PUSH1 0x40 MLOAD SWAP5 DUP6 PUSH2 0x2527 JUMP JUMPDEST DUP3 DUP5 MSTORE PUSH1 0x20 DUP4 DUP4 ADD ADD GT PUSH2 0x1B3 JUMPI DUP2 PUSH1 0x0 SWAP3 PUSH1 0x20 DUP1 SWAP4 ADD DUP4 DUP7 ADD CALLDATACOPY DUP4 ADD ADD MSTORE SWAP1 JUMP JUMPDEST SWAP1 PUSH1 0x40 PUSH1 0x3 NOT DUP4 ADD SLT PUSH2 0x1B3 JUMPI PUSH1 0x4 CALLDATALOAD SWAP2 PUSH1 0x24 CALLDATALOAD SWAP1 PUSH1 0x1 PUSH1 0x1 PUSH1 0x40 SHL SUB DUP3 GT PUSH2 0x1B3 JUMPI PUSH2 0x26C3 SWAP2 PUSH1 0x4 ADD PUSH2 0x2725 JUMP JUMPDEST PUSH1 0x20 SWAP1 DUP2 PUSH1 0x40 DUP2 DUP4 ADD SWAP3 DUP3 DUP2 MSTORE DUP6 MLOAD DUP1 SWAP5 MSTORE ADD SWAP4 ADD SWAP2 PUSH1 0x0 JUMPDEST DUP3 DUP2 LT PUSH2 0x27C2 JUMPI POP POP POP POP SWAP1 JUMP JUMPDEST DUP4 MLOAD DUP6 MSTORE SWAP4 DUP2 ADD SWAP4 SWAP3 DUP2 ADD SWAP3 PUSH1 0x1 ADD PUSH2 0x27B4 JUMP JUMPDEST SWAP1 PUSH1 0x1 DUP3 DUP2 SHR SWAP3 AND DUP1 ISZERO PUSH2 0x2806 JUMPI JUMPDEST PUSH1 0x20 DUP4 LT EQ PUSH2 0x27F0 JUMPI JUMP JUMPDEST PUSH4 0x4E487B71 PUSH1 0xE0 SHL PUSH1 0x0 MSTORE PUSH1 0x22 PUSH1 0x4 MSTORE PUSH1 0x24 PUSH1 0x0 REVERT JUMPDEST SWAP2 PUSH1 0x7F AND SWAP2 PUSH2 0x27E5 JUMP JUMPDEST SWAP1 PUSH1 0x40 MLOAD SWAP2 DUP3 PUSH1 0x0 DUP3 SLOAD SWAP3 PUSH2 0x2824 DUP5 PUSH2 0x27D6 JUMP JUMPDEST SWAP1 DUP2 DUP5 MSTORE PUSH1 0x1 SWAP5 DUP6 DUP2 AND SWAP1 DUP2 PUSH1 0x0 EQ PUSH2 0x2893 JUMPI POP PUSH1 0x1 EQ PUSH2 0x2850 JUMPI JUMPDEST POP POP PUSH2 0x284E SWAP3 POP SUB DUP4 PUSH2 0x2527 JUMP JUMPDEST JUMP JUMPDEST SWAP1 SWAP4 SWAP2 POP PUSH1 0x0 MSTORE PUSH1 0x20 SWAP1 DUP2 PUSH1 0x0 KECCAK256 SWAP4 PUSH1 0x0 SWAP2 JUMPDEST DUP2 DUP4 LT PUSH2 0x287B JUMPI POP POP PUSH2 0x284E SWAP4 POP DUP3 ADD ADD CODESIZE DUP1 PUSH2 0x2840 JUMP JUMPDEST DUP6 SLOAD DUP9 DUP5 ADD DUP6 ADD MSTORE SWAP5 DUP6 ADD SWAP5 DUP8 SWAP5 POP SWAP2 DUP4 ADD SWAP2 PUSH2 0x2863 JUMP JUMPDEST SWAP2 POP POP PUSH2 0x284E SWAP5 POP PUSH1 0x20 SWAP3 POP PUSH1 0xFF NOT AND DUP3 DUP5 ADD MSTORE ISZERO ISZERO PUSH1 0x5 SHL DUP3 ADD ADD CODESIZE DUP1 PUSH2 0x2840 JUMP JUMPDEST SWAP2 SWAP1 DUP3 SUB SWAP2 DUP3 GT PUSH2 0x1D57 JUMPI JUMP JUMPDEST PUSH1 0x0 NOT DUP2 EQ PUSH2 0x1D57 JUMPI PUSH1 0x1 ADD SWAP1 JUMP JUMPDEST PUSH1 0x7 DUP3 LT ISZERO PUSH2 0x4BB JUMPI MSTORE JUMP JUMPDEST SWAP1 PUSH1 0x7 DUP2 LT ISZERO PUSH2 0x4BB JUMPI DUP2 SLOAD PUSH1 0xFF PUSH1 0xA0 SHL NOT AND PUSH1 0xA0 SWAP2 SWAP1 SWAP2 SHL PUSH1 0xFF PUSH1 0xA0 SHL AND OR SWAP1 SSTORE JUMP JUMPDEST DUP1 SLOAD PUSH9 0x10000000000000000 DUP2 LT ISZERO PUSH2 0x115D JUMPI PUSH2 0x2924 SWAP2 PUSH1 0x1 DUP3 ADD DUP2 SSTORE PUSH2 0x26DC JUMP JUMPDEST DUP2 SWAP3 SWAP2 SLOAD SWAP1 PUSH1 0x3 SHL SWAP2 DUP3 SHL SWAP2 PUSH1 0x0 NOT SWAP1 SHL NOT AND OR SWAP1 SSTORE JUMP JUMPDEST ISZERO PUSH2 0x2943 JUMPI JUMP JUMPDEST PUSH1 0x40 MLOAD PUSH3 0x461BCD PUSH1 0xE5 SHL DUP2 MSTORE PUSH1 0x20 PUSH1 0x4 DUP3 ADD MSTORE PUSH1 0x23 PUSH1 0x24 DUP3 ADD MSTORE PUSH32 0x4F72646572547261636B696E673A204F7264657220646F6573206E6F74206578 PUSH1 0x44 DUP3 ADD MSTORE PUSH3 0x1A5CDD PUSH1 0xEA SHL PUSH1 0x64 DUP3 ADD MSTORE PUSH1 0x84 SWAP1 REVERT JUMPDEST ISZERO PUSH2 0x299B JUMPI JUMP JUMPDEST PUSH1 0x40 MLOAD PUSH3 0x461BCD PUSH1 0xE5 SHL DUP2 MSTORE PUSH1 0x20 PUSH1 0x4 DUP3 ADD MSTORE PUSH1 0x23 PUSH1 0x24 DUP3 ADD MSTORE PUSH32 0x4F72646572547261636B696E673A20496E76616C6964206F7264657220737461 PUSH1 0x44 DUP3 ADD MSTORE PUSH3 0x747573 PUSH1 0xE8 SHL PUSH1 0x64 DUP3 ADD MSTORE PUSH1 0x84 SWAP1 REVERT JUMPDEST ISZERO PUSH2 0x29F3 JUMPI JUMP JUMPDEST PUSH1 0x40 MLOAD PUSH3 0x461BCD PUSH1 0xE5 SHL DUP2 MSTORE PUSH1 0x20 PUSH1 0x4 DUP3 ADD MSTORE PUSH1 0x1D PUSH1 0x24 DUP3 ADD MSTORE PUSH32 0x4F72646572547261636B696E673A204E6F7420617574686F72697A6564000000 PUSH1 0x44 DUP3 ADD MSTORE PUSH1 0x64 SWAP1 REVERT JUMPDEST PUSH1 0x40 MLOAD SWAP1 PUSH2 0x2A45 DUP3 PUSH2 0x250B JUMP JUMPDEST DUP2 PUSH2 0x200 PUSH1 0x0 SWAP2 DUP3 DUP2 MSTORE PUSH1 0x60 SWAP3 DUP4 PUSH1 0x20 DUP4 ADD MSTORE DUP1 PUSH1 0x40 DUP4 ADD MSTORE DUP1 DUP5 DUP4 ADD MSTORE DUP4 PUSH1 0x80 DUP4 ADD MSTORE DUP4 PUSH1 0xA0 DUP4 ADD MSTORE DUP1 PUSH1 0xC0 DUP4 ADD MSTORE DUP1 PUSH1 0xE0 DUP4 ADD MSTORE DUP1 PUSH2 0x100 DUP4 ADD MSTORE DUP1 PUSH2 0x120 DUP4 ADD MSTORE DUP1 PUSH2 0x140 DUP4 ADD MSTORE DUP1 PUSH2 0x160 DUP4 ADD MSTORE DUP1 PUSH2 0x180 DUP4 ADD MSTORE DUP4 PUSH2 0x1A0 DUP4 ADD MSTORE PUSH2 0x1C0 DUP3 ADD MSTORE DUP3 PUSH2 0x1E0 DUP3 ADD MSTORE ADD MSTORE JUMP JUMPDEST DUP1 MLOAD DUP3 LT ISZERO PUSH2 0x26F4 JUMPI PUSH1 0x20 SWAP2 PUSH1 0x5 SHL ADD ADD SWAP1 JUMP JUMPDEST ISZERO PUSH2 0x2AD1 JUMPI JUMP JUMPDEST PUSH1 0x40 MLOAD PUSH3 0x461BCD PUSH1 0xE5 SHL DUP2 MSTORE PUSH1 0x20 PUSH1 0x4 DUP3 ADD MSTORE PUSH1 0x18 PUSH1 0x24 DUP3 ADD MSTORE PUSH32 0x4F72646572547261636B696E673A204E6F74206F776E65720000000000000000 PUSH1 0x44 DUP3 ADD MSTORE PUSH1 0x64 SWAP1 REVERT JUMPDEST PUSH1 0x7 DUP2 LT ISZERO SWAP2 DUP3 PUSH2 0x4BB JUMPI PUSH1 0x4 SWAP2 DUP3 DUP2 EQ SWAP4 DUP5 ISZERO SWAP5 DUP6 PUSH2 0x2CBE JUMPI JUMPDEST PUSH2 0x2CB4 JUMPI PUSH1 0x7 DUP4 LT ISZERO SWAP5 DUP6 PUSH2 0x2C9F JUMPI PUSH1 0x6 DUP5 EQ PUSH2 0x2C82 JUMPI POP PUSH2 0x2C6D JUMPI DUP1 ISZERO PUSH2 0x2C46 JUMPI PUSH1 0x1 DUP2 EQ PUSH2 0x2C0B JUMPI PUSH1 0x2 DUP2 EQ PUSH2 0x2BE3 JUMPI PUSH1 0x3 DUP2 EQ PUSH2 0x2BCC JUMPI PUSH1 0x6 EQ PUSH2 0x2B7A JUMPI POP POP POP PUSH1 0x0 SWAP1 JUMP JUMPDEST DUP3 PUSH2 0x2BA9 JUMPI PUSH1 0x1 DUP2 EQ SWAP3 DUP4 ISZERO PUSH2 0x2BBE JUMPI JUMPDEST DUP4 ISZERO PUSH2 0x2B98 JUMPI JUMPDEST POP POP POP SWAP1 JUMP JUMPDEST SWAP1 SWAP2 SWAP3 POP PUSH2 0x2BA9 JUMPI EQ CODESIZE DUP1 DUP1 PUSH2 0x2B92 JUMP JUMPDEST PUSH1 0x21 DUP3 PUSH4 0x4E487B71 PUSH1 0xE0 SHL PUSH1 0x0 MSTORE MSTORE PUSH1 0x24 PUSH1 0x0 REVERT JUMPDEST POP PUSH1 0x5 DUP2 EQ SWAP3 POP PUSH1 0x0 PUSH2 0x2B8B JUMP JUMPDEST POP SWAP1 SWAP2 PUSH2 0x2BA9 JUMPI EQ DUP1 ISZERO PUSH2 0x2BDD JUMPI SWAP1 JUMP JUMPDEST POP PUSH1 0x0 SWAP1 JUMP JUMPDEST POP SWAP2 PUSH2 0x2BF6 JUMPI POP PUSH1 0x3 EQ DUP1 ISZERO PUSH2 0x2BDD JUMPI SWAP1 JUMP JUMPDEST PUSH1 0x21 SWAP1 PUSH4 0x4E487B71 PUSH1 0xE0 SHL PUSH1 0x0 MSTORE MSTORE PUSH1 0x24 PUSH1 0x0 REVERT JUMPDEST POP SWAP2 DUP1 PUSH2 0x2BA9 JUMPI PUSH1 0x2 DUP4 EQ SWAP3 DUP4 ISZERO PUSH2 0x2C37 JUMPI JUMPDEST POP DUP3 ISZERO PUSH2 0x2C2A JUMPI POP POP SWAP1 JUMP JUMPDEST SWAP1 SWAP2 POP PUSH2 0x2BF6 JUMPI POP PUSH1 0x0 SWAP1 JUMP JUMPDEST PUSH1 0x5 EQ SWAP3 POP PUSH1 0x0 SWAP1 POP CODESIZE PUSH2 0x2C1E JUMP JUMPDEST POP SWAP2 POP PUSH1 0x0 PUSH1 0x1 DUP4 EQ SWAP3 DUP4 ISZERO PUSH2 0x2C62 JUMPI POP DUP3 ISZERO PUSH2 0x2C2A JUMPI POP POP SWAP1 JUMP JUMPDEST PUSH1 0x5 EQ SWAP3 POP CODESIZE PUSH2 0x2C1E JUMP JUMPDEST PUSH1 0x21 DUP4 PUSH4 0x4E487B71 PUSH1 0xE0 SHL PUSH1 0x0 MSTORE MSTORE PUSH1 0x24 PUSH1 0x0 REVERT JUMPDEST SWAP5 POP SWAP1 SWAP3 SWAP2 POP PUSH2 0x2BF6 JUMPI POP DUP2 PUSH2 0x2C96 JUMPI POP SWAP1 JUMP JUMPDEST PUSH1 0x5 SWAP2 POP EQ ISZERO SWAP1 JUMP JUMPDEST PUSH1 0x21 DUP6 PUSH4 0x4E487B71 PUSH1 0xE0 SHL PUSH1 0x0 MSTORE MSTORE PUSH1 0x24 PUSH1 0x0 REVERT JUMPDEST POP POP POP POP POP PUSH1 0x0 SWAP1 JUMP JUMPDEST POP POP PUSH1 0x0 PUSH1 0x5 DUP3 EQ PUSH2 0x2B31 JUMP JUMPDEST ISZERO PUSH2 0x2CD2 JUMPI JUMP JUMPDEST PUSH1 0x40 MLOAD PUSH3 0x461BCD PUSH1 0xE5 SHL DUP2 MSTORE PUSH1 0x20 PUSH1 0x4 DUP3 ADD MSTORE PUSH1 0x2C PUSH1 0x24 DUP3 ADD MSTORE PUSH32 0x4F72646572547261636B696E673A20496E73756666696369656E7420636F6E74 PUSH1 0x44 DUP3 ADD MSTORE PUSH12 0x726163742062616C616E6365 PUSH1 0xA0 SHL PUSH1 0x64 DUP3 ADD MSTORE PUSH1 0x84 SWAP1 REVERT JUMPDEST PUSH1 0x0 SWAP1 DUP2 MSTORE PUSH1 0x1 PUSH1 0x20 MSTORE DUP1 DUP1 DUP1 DUP1 PUSH1 0x40 DUP2 KECCAK256 PUSH1 0x40 MLOAD PUSH2 0x2D4A DUP2 PUSH2 0x250B JUMP JUMPDEST DUP2 SLOAD DUP2 MSTORE PUSH2 0x2D5A PUSH1 0x1 DUP4 ADD PUSH2 0x2810 JUMP JUMPDEST PUSH1 0x20 DUP3 ADD MSTORE PUSH1 0x2 DUP3 ADD SLOAD PUSH1 0x1 PUSH1 0x1 PUSH1 0xA0 SHL SUB SWAP1 DUP2 AND PUSH1 0x40 DUP4 ADD SWAP1 DUP2 MSTORE PUSH1 0x3 DUP5 ADD SLOAD DUP3 AND PUSH1 0x60 DUP5 ADD MSTORE SWAP1 SWAP2 PUSH2 0x2D90 PUSH1 0x4 DUP6 ADD PUSH2 0x2810 JUMP JUMPDEST PUSH1 0x80 DUP3 ADD MSTORE PUSH2 0x2DA1 PUSH1 0x5 DUP6 ADD PUSH2 0x2810 JUMP JUMPDEST PUSH1 0xA0 DUP3 ADD MSTORE PUSH1 0x6 DUP5 ADD SLOAD PUSH1 0xC0 DUP3 ADD MSTORE PUSH2 0x200 PUSH2 0x2DE6 PUSH1 0xF PUSH1 0x7 DUP8 ADD SLOAD SWAP7 PUSH1 0xE0 DUP6 ADD SWAP8 DUP9 MSTORE PUSH2 0x323 PUSH1 0xFF PUSH1 0x8 DUP4 ADD SLOAD DUP10 DUP2 AND PUSH2 0x100 DUP10 ADD MSTORE PUSH1 0xA0 SHR AND PUSH2 0x120 DUP8 ADD PUSH2 0x28D2 JUMP JUMPDEST SWAP2 ADD MSTORE PUSH2 0x2DF6 SELFBALANCE DUP5 MLOAD GT ISZERO PUSH2 0x2CCB JUMP JUMPDEST MLOAD AND SWAP1 MLOAD SWAP1 DUP3 DUP3 ISZERO PUSH2 0x2E18 JUMPI JUMPDEST CALL ISZERO PUSH2 0x2E0C JUMPI POP JUMP JUMPDEST PUSH1 0x40 MLOAD SWAP1 RETURNDATASIZE SWAP1 DUP3 RETURNDATACOPY RETURNDATASIZE SWAP1 REVERT JUMPDEST POP PUSH2 0x8FC PUSH2 0x2E03 JUMP JUMPDEST DUP1 ISZERO PUSH2 0x2EE1 JUMPI DUP1 DUP2 PUSH1 0x0 SWAP3 JUMPDEST PUSH2 0x2ECD JUMPI POP DUP1 PUSH2 0x2E3C DUP4 PUSH2 0x270A JUMP JUMPDEST SWAP3 PUSH2 0x2E4A PUSH1 0x40 MLOAD SWAP5 DUP6 PUSH2 0x2527 JUMP JUMPDEST DUP1 DUP5 MSTORE PUSH1 0x1F NOT PUSH2 0x2E59 DUP3 PUSH2 0x270A JUMP JUMPDEST ADD CALLDATASIZE PUSH1 0x20 DUP7 ADD CALLDATACOPY SWAP2 JUMPDEST PUSH2 0x2E6B JUMPI POP POP SWAP1 JUMP JUMPDEST PUSH1 0x0 NOT DUP3 ADD SWAP2 DUP1 DUP4 GT PUSH2 0x1D57 JUMPI DUP3 PUSH1 0xA SWAP1 DUP2 DUP5 DIV SWAP4 DUP3 DUP6 MUL SWAP3 DUP6 DUP5 DIV EQ DUP6 ISZERO OR ISZERO PUSH2 0x1D57 JUMPI PUSH2 0x2E9D PUSH1 0xFF SWAP4 DUP5 SWAP3 PUSH2 0x28B6 JUMP JUMPDEST AND PUSH1 0x30 ADD SWAP2 DUP3 GT PUSH2 0x1D57 JUMPI DUP6 MLOAD GT ISZERO PUSH2 0x26F4 JUMPI PUSH1 0xF8 SHL PUSH1 0x1 PUSH1 0x1 PUSH1 0xF8 SHL SUB NOT AND PUSH1 0x0 BYTE SWAP1 DUP5 ADD PUSH1 0x1F ADD MSTORE8 DUP1 PUSH2 0x2E62 JUMP JUMPDEST SWAP2 PUSH2 0x2ED9 PUSH1 0xA SWAP2 PUSH2 0x28C3 JUMP JUMPDEST SWAP3 DIV DUP1 PUSH2 0x2E2D JUMP JUMPDEST POP PUSH1 0x40 MLOAD PUSH1 0x40 DUP2 ADD DUP2 DUP2 LT PUSH1 0x1 PUSH1 0x1 PUSH1 0x40 SHL SUB DUP3 GT OR PUSH2 0x115D JUMPI PUSH1 0x40 MSTORE PUSH1 0x1 DUP2 MSTORE PUSH1 0x3 PUSH1 0xFC SHL PUSH1 0x20 DUP3 ADD MSTORE SWAP1 JUMP INVALID 0x2B 0x23 0xC DUP9 LOG2 0xDF 0xBD SDIV DUP3 PUSH21 0x96C85A5481F5B5FD85A1306A77DA91F82D920E2316 SWAP5 LOG2 PUSH5 0x6970667358 0x22 SLT KECCAK256 0xD4 0x1F 0x4F PUSH16 0xC9896E592717651B27B3DBF996249DEA 0xFB 0x22 SWAP14 0xCB EQ PUSH17 0x43B9E72268B464736F6C63430008140033 "},"methodIdentifiers":{"addTrackingNumber(uint256,string)":"78cf1bda","buyerOrders(address,uint256)":"4500cb60","cancelOrder(uint256,string)":"ad7e2181","confirmOrder(uint256)":"8ac7d79c","createOrder(address,string,string,uint256,address,uint256,string,string)":"66f74547","disputeOrder(uint256,string)":"5911388a","getBuyerOrders(address)":"a45f2ebc","getOrder(uint256)":"d09ef241","getOrders(uint256[])":"03652027","getSellerOrders(address)":"e4cbac40","markAsProcessing(uint256)":"b63088b2","markAsShipped(uint256)":"bd99840e","minOrderValue()":"9e2c8ff1","orders(uint256)":"a85c38ef","owner()":"8da5cb5b","platformFeeBps()":"22dcd13e","sellerOrders(address,uint256)":"45cb4505","setMinOrderValue(uint256)":"21ef0ab8","setPlatformFee(uint256)":"12e8e2c3","totalOrders()":"1d834409","transferOwnership(address)":"f2fde38b","updateOrderStatus(uint256,uint8)":"aab3196d"}}}}}